:020000040800F2
:10000000380700209D010008F12A00082D2800086B
:10001000ED2A0008CD040008973600080000000013
:100020000000000000000000000000002B2F00086E
:10003000D1040008000000002D2B00082D2F00081F
:10004000B7010008B7010008B7010008B7010008B0
:10005000B7010008B7010008D3040008B701000881
:10006000B7010008B7010008B7010008B701000890
:10007000B7010008B7010008B7010008B701000880
:10008000B7010008B7010008B7010008B701000870
:10009000B7010008B7010008B7010008B701000860
:1000A000B7010008B7010008B7010008B701000850
:1000B000B7010008B7010008B7010008B701000840
:1000C000B7010008B7010008B7010008B701000830
:1000D000B7010008B7010008B7010008B701000820
:1000E000B7010008B7010008B7010008B701000810
:1000F000B7010008B7010008B7010008B701000800
:10010000B7010008B7010008B7010008B7010008EF
:10011000B7010008B7010008B7010008B7010008DF
:10012000B7010008B7010008B7010008B7010008CF
:10013000B7010008B7010008B7010008B7010008BF
:10014000B7010008B7010008B7010008B7010008AF
:10015000B7010008B7010008B7010008B70100089F
:10016000B7010008B7010008B7010008B70100088F
:10017000B7010008B7010008B7010008000000003F
:10018000B7010008B7010008DFF80CD000F07EF8D6
:1001900000480047413700083807002006488047DC
:1001A00006480047FEE7FEE7FEE7FEE7FEE7FEE75C
:1001B000FEE7FEE7FEE7FEE7DD2F00088901000805
:1001C0002DE9F05F0546002092469B46884606468C
:1001D000814640241BE0284641464746224600F01F
:1001E00044F853465A46C01A914110D31146184656
:1001F000224600F02BF82D1A67EB01084F462246E5
:100200000120002100F022F817EB00094E41201ECA
:10021000A4F10104DFDC484631462A46434600F09B
:1002200000B830BCBDE8C09FD2B201E000F8012B9D
:10023000491EFBD270470022F6E710B513460A4666
:1002400004461946FFF7F0FF204610BD202A04DBC4
:10025000203A00FA02F1002070479140C2F12003D9
:1002600020FA03F3194390407047202A04DB203A18
:1002700021FA02F00021704721FA02F3D040C2F1C6
:10028000200291400843194670470000064C074D74
:1002900006E0E06840F0010394E807009847103456
:1002A000AC42F6D3FFF774FF98390008B83900085C
:1002B0002DE9F05F044688464FF000094746206864
:1002C00002F0E5FA8246206802F0C8FA8346BAF1E5
:1002D000000F02D1BBF1000F6ED02068C06800F0A3
:1002E000007000B3607E01281DD1207E01281AD144
:1002F00001270FE0314881450AD3606D40F01000BE
:100300006065A06D40F00100A065012000F05AB8C2
:1003100009F1010920680068C0F380100028E9D0C5
:10032000402021680860022F10D0206802F0AFFA48
:1003300060B1206802F097FA40B920688168204ACD
:10034000114041F01001816000BF00BF012F10D0AB
:10035000206802F083FA60B1206802F084FA40B9A4
:1003600020688168164A114041F02001816000BF79
:1003700000BF022F03D0032F03D10C2503E0082573
:1003800001E0042500BF00BF00F094FF06460EE028
:1003900000F090FF801B052809D9606D40F0100027
:1003A0006065A06D40F00100A0650120AEE7206807
:1003B000806828400028EBD10020A7E7000040A378
:1003C000C0FFFF7F30BCBDE8C09F000070B5044691
:1003D000206802F048FA0646206802F049FA70B335
:1003E0006EBB2068806800F00D0001280AD12068EB
:1003F0008168174A1140891C816000BF0320216871
:10040000086009E0606D40F010006065A06D40F08C
:100410000100A065012070BD00F04CFF05460FE013
:1004200000F048FF401B02280AD9606D40F0100020
:100430006065A06D40F00100A0650120EBE705E0DC
:100440002068806800F001000028E9D10020E2E780
:10045000C0FFFF7F70B50446206802F009FA88BB30
:10046000206880681849084048B1606D40F010006D
:100470006065A06D40F00100A065012070BD20689E
:1004800002F0D6F900F016FF054615E0206802F0EC
:10049000EFF910B9206802F0CBF900F00BFF401B18
:1004A000022809D9606D40F010006065A06D40F031
:1004B0000100A0650120E1E72068006800F001006C
:1004C0000028E3D00020D9E73F00008000BFFEE70E
:1004D000704710B5012000F0D5FD10BD7047000039
:1004E0002DE9F04399B004460E464FF000083068FD
:1004F00000B100BF00BF94F85000012803D10220D2
:1005000019B0BDE8F083012084F8500000BF3849DD
:100510002068884202D13748009001E00020009016
:10052000009850B9606D40F02000606500BF002069
:1005300084F8500000BF0120E2E7009802F0ACF917
:100540000746206802F0A8F9F0BBEFBB2A4D3068DF
:1005500020B394F83000716841EA4030A96821F472
:1005600060410843A860224802F087F9814621488B
:1005700002F083F949EA0009204802F07EF949EACD
:100580000009B9F1000F2CD1B16830680843A9689F
:1005900040F61F7291430843A86022E0A86820F447
:1005A0006040A860124802F068F98146114802F0E4
:1005B00064F949EA0009114802F05FF949EA0009C3
:1005C000B9F1000F0DD100E005E0A86840F61F71F9
:1005D0008843A86005E0606D40F0200060654FF042
:1005E000010800BF002084F8500000BF404687E7A4
:1005F00000000450000104500003045000020450A5
:100600002DE9F84F05460C464FF0000A00200090F7
:10061000FE49E068884200D000E000BF00BF95F8C6
:100620005000012802D1022000F05CBA012085F8B8
:10063000500000BF286802F02AF9002872D16068D3
:1006400005281AD86068022806D0032807D0042895
:1006500008D005280DD108E00C2060600CE01220C5
:10066000606009E01820606006E04FF48070606010
:1006700002E00620606000BF00BF2968D4E90020C6
:1006800001F1300CC0F3012B0CEB8B0300F01F0EBB
:100690004FF01F0B0BFA0EFBD3F800C02CEA0B0C2B
:1006A00000F01F0BC2F3846E0EFA0BFE4CEA0E0C28
:1006B000C3F800C000BF286802F0E9F88146286846
:1006C00002F0CCF88046B9F1000F2AD1B8F1000F42
:1006D000FBD1A2682168286802F0F4F860692968F3
:1006E000C968C1F3C101490000FA01F72069042873
:1006F00019D028682268216900F1600C0CEB810395
:10070000DFF80CB3D3F800C00CEA0B0C02F0F84B86
:100710004BF0004B4BEA070B4CEA0B0CC3F800C044
:1007200000BFA8E0C2E10021286802F08EF8C0F303
:10073000120030B90021286802F087F8C0F3846005
:1007400007E00021286802F080F890FAA0F0B0FAE3
:1007500080F02168C1F3120119B92168C1F38461E5
:1007600004E0216891FAA1F1B1FA81F1884204D143
:1007700000221146286802F0BFF80121286802F023
:1007800064F8C0F3120030B90121286802F05DF866
:10079000C0F3846007E00121286802F056F890FA5F
:1007A000A0F0B0FA80F02168C1F3120119B92168F4
:1007B000C1F3846104E0216891FAA1F1B1FA81F1F9
:1007C000884204D100220121286802F095F8022114
:1007D000286802F03AF8C0F3120030B90221286804
:1007E00002F033F8C0F3846007E00221286802F0C9
:1007F0002CF890FAA0F0B0FA80F02168C1F3120151
:1008000019B92168C1F3846104E0216891FAA1F16A
:10081000B1FA81F1884204D100220221286802F055
:100820006BF80321286802F010F8C0F3120030B909
:100830000321286802F009F8C0F3846007E003216F
:10084000286802F002F890FAA0F0B0FA80F021686F
:10085000C1F3120119B92168C1F3846104E0216870
:1008600091FAA1F1B1FA81F1884204D10022032169
:10087000286802F041F8286801F0FAFF002870D1DA
:100880002868E2682168D0F8B0C0C1F312032CEAEE
:10089000030C02F0180B5F4B23FA0BF30B404CEAEE
:1008A000030CC0F8B0C000BF5849E068884258D176
:1008B0002368C3F312031BB92368C3F3846304E002
:1008C000236893FAA3F3B3FA83F35B1C03F01F03CB
:1008D000092B3ED82368C3F312031BB92368C3F363
:1008E000846304E0236893FAA3F3B3FA83F35B1CF5
:1008F00003F01F034FF0010C0CFA03FC2368C3F351
:1009000012031BB92368C3F3846304E0236893FADA
:10091000A3F3B3FA83F35B1C03F01F034CEA836C6D
:100920002368C3F312031BB92368C3F3846304E091
:10093000236893FAA3F3B3FA83F35B1C03F01F035A
:1009400003EB43034FF0000B4BEA03534CEA030362
:100950003FE02368C3F3120323B92368C3F384631E
:1009600005E03BE0236893FAA3F3B3FA83F35B1C3F
:1009700003F01F034FF0010C0CFA03FC2368C3F3D0
:1009800012031BB92368C3F3846304E0236893FA5A
:10099000A3F3B3FA83F35B1C03F01F034CEA836CED
:1009A0002368C3F312031BB92368C3F3846304E011
:1009B000236893FAA3F3B3FA83F35B1C03F01F03DA
:1009C0000A3B03EB43034FF0007B4BEA03534CEA33
:1009D00003031946A268286801F074FF0E492068D5
:1009E0000840A0B300BF0D48806800F0E07600BF6B
:1009F0000B492068884233D106F4000040BB094906
:100A00002868884214D0084928680FE000007F4019
:100A100000F0FF03FFFF0700000008800003045000
:100A2000000052C70000045000020450884243D125
:100A300046F40001244801F059FF24480068244985
:100A4000B0FBF1F000EB40008000009004E01BE000
:100A500006E00098401E009000980028F9D12BE095
:100A60001C492068884210D106F0807068B91A4984
:100A70002868884203D01949286888421CD146F06A
:100A80008071114801F032FF16E015492068884254
:100A900012D106F4800078B90F49286888420BD13A
:100AA00046F48001084801F021FF05E0686D40F040
:100AB000200068654FF0010A00BF002085F8500053
:100AC00000BF5046B0E50000000304501C000020A9
:100AD000400D0300000084CB0000045000020450CD
:100AE0000100008018BCBDE8E08F01460868006C7A
:100AF000704700002DE9F84F04464FF00009002030
:100B0000009014B9012000F003B9206920B1202021
:100B1000005D012800D100BF606D30B9204600F0B3
:100B2000FBF80020A06584F8500020688168C1F3BC
:100B3000407131B1206881686C4A1140816000BF0A
:100B400000BF206801F09EFEA0B920688168684A55
:100B5000114041F08051816000BF664800686649DD
:100B6000B0FBF1F0009002E00098401E0090009869
:100B70000028F9D1206801F085FE48B9606D40F089
:100B800010006065A06D40F00100A0654FF0010904
:100B9000206801F07CFE0646606D00F01000002821
:100BA0007BD1002EFCD1606D20F4807040F00200FB
:100BB0006065206801F05CFED0B9504801F058FE35
:100BC00082464F4801F054FE4AEA000A4D4801F0BF
:100BD0004FFE4AEA000ABAF1000F09D160684A499B
:100BE000896821F47C110143474A916000BF00BF2E
:100BF000607E616B41EA4030E1680843A1680843C8
:100C00002021095D40EA01452020005D012803D133
:100C1000A08C401E45EA4045A06A28B1208D00F412
:100C20007070E16A084305432068C068374908408E
:100C300028432168C860206801F029FE80462068AA
:100C400001F00CFE0746B8F1000F2DD127BB207E26
:100C5000002141EA803194F8300041EA40052068E3
:100C6000C06844F20201884328432168C86094F8B0
:100C70003800012812D1E06B40F00101206C0843DC
:100C8000616C0843A16C08432168096940F2FC7259
:100C9000914308432168086106E01FE0206800696D
:100CA00020F00100216808612069012809D120682D
:100CB000006B20F00F00E169491E084321680863BA
:100CC00005E02068006B20F00F0021680863606D6C
:100CD00020F0020040F00100606505E0606D40F02A
:100CE000100060654FF0010948460CE7C0FFFF5F48
:100CF000C0FFFF7F1C000020400D030000000450D7
:100D000000010450000204500003045007C0F0FF2B
:100D100018BCBDE8E08F000010B586B00446142171
:100D200001A8FFF788FA16492068884225D100BF3C
:100D30001448C06C40F400501249C8640846C06CA6
:100D400000F40050009000BF00BF00BF0846C06C18
:100D500040F00100C8640846C06C00F0010000903B
:100D600000BF00BF022001900B20029000200390E2
:100D700001A94FF0904000F093F906B010BD0000BB
:100D800000000450001002402DE9F04704460F46D1
:100D9000464801F055FD05466069082801D108263E
:100DA0001FE01DB1052D01D0092D0DD12068C068AF
:100DB00000F0010030B1606D40F02000606501205E
:100DC000BDE8F08704260CE000BF3848806800F4D6
:100DD000604028B1606D40F0200060650120EFE7C1
:100DE000042600F067FA804613E0781C88B100F012
:100DF00061FAA0EB0800B84200D857B9606D40F026
:100E00000400606500BF002084F8500000BF03208C
:100E1000D6E72068006830400028E6D0606D40F4D6
:100E200000706065206801F03CFD98B1607E88B973
:100E30002068006800F0080008280BD1606D20F4DD
:100E400080706065606D00F4805018B9606D40F08E
:100E50000100606516492068884201D1154800E00C
:100E600020682168884204D01DB1052D01D0092DCC
:100E700003D12068D0F80C9009E00D492068884221
:100E800001D10C4800E020688246DAF80C90082E68
:100E900003D108202168086005E009F4804010B9FA
:100EA0000C202168086000208AE70000000304503D
:100EB00000010450000004502DE9F041044642486E
:100EC00001F0BEFC0646206801F0E1FC002877D165
:100ED00000BF94F85000012802D10220BDE8F08143
:100EE000012084F8500000BF2046FFF7B3FA054602
:100EF000002D60D1606D40F60161884340F4807040
:100F0000606532492068884201D1314800E020689C
:100F10002168884200D01EB9606D20F480106065A1
:100F2000606D00F48050B0F5805F04D1A06D20F0BA
:100F30000600A06501E00020A0651C202168086073
:100F400000BF002084F8500000BF2049206888427C
:100F500001D11F4800E020682168884204D01EB1FA
:100F6000052E01D0092E0ED12068C06800F0007057
:100F700028B1606D20F4005040F480506065206816
:100F800001F098FC1DE0606D40F4801060650F4931
:100F90002068884201D10E4800E020680746F868C2
:100FA00000F0007068B1606D20F4005040F4805093
:100FB000606506E004E000BF002084F8500000E017
:100FC000022528468AE7000000030450000104506F
:100FD0000000045070B5044600BF94F8500001288A
:100FE00001D1022070BD012084F8500000BF032110
:100FF0002046FFF75DF9054655B92046FFF7E6F9AB
:1010000005462DB9606D20F4885040F00100606500
:1010100000BF002084F8500000BF2846E2E770B50A
:10102000044600F047F906462546681C00B16D1CD1
:1010300000BF00F03FF9801BA842FAD370BD00004A
:1010400010B5044621464FF0904000F02BF948B10E
:101050000648007830B14FF47A730F2204A1084893
:1010600001F080FB204600F00DF810BD14000020B8
:1010700048656C6C6F2C20576F726C64210A0000FD
:10108000B000002010B5044604480068204020B19C
:10109000024804602046FFF7D3FF10BD140401404E
:1010A00078B503460022E5E0012696400D6805EA82
:1010B0000604002C7DD04D68022D02D04D68122D03
:1010C00013D1D60803F1200555F826005507EE0E7A
:1010D0000F25B540A8435607F60E0D69B5402843C5
:1010E000D60803F1200545F82600186856000325A8
:1010F000B540A8430D7905F003055600B5402843D7
:1011000018604D68012D08D04D68022D05D04D683E
:10111000112D02D04D68122D13D198685600032569
:10112000B540A8435600CD68B5402843986058683C
:1011300001259540A8430D79C5F300159540284336
:1011400058600D7905F00305032D09D1D86A0125F2
:101150009540A8430D79C5F3C00595402843D86252
:10116000D86856000325B540A84356008D68B540A1
:101170002843D8604D6805F08055B5F1805F78D17F
:1011800000BF3F4D2D6E45F001053D4E356635469D
:101190002D6E05F00105009500BF00BF4FEAB63582
:1011A000960855F8260095072E0F0F25B540A84341
:1011B00000E05EE0B3F1904F01D100251EE0314D1B
:1011C000AB4201D1012519E02F4DAB4201D10225DF
:1011D00014E02E4DAB4201D103250FE02C4DAB4264
:1011E00001D104250AE02B4DAB4201D1052505E0D4
:1011F000294DAB4201D1062500E007259607360FA1
:10120000B5402843254D960845F82600244D28680A
:10121000A0434D6805F48035B5F5803F00D12043EB
:101220001F4D28602D1D2868A0434D6805F400352A
:10123000B5F5003F00D12043194D2D1D28602D1D0F
:101240002868A0434D6805F48015B5F5801F00D1CE
:101250002043134D083528602D1D2868A0434D6894
:1012600005F40015B5F5001F00D120430C4D0C35D9
:101270002860521C0D68D540002D7FF415AF78BD55
:10128000001002400004004800080048000C00481C
:1012900000100048001400480018004808000140F1
:1012A00000040140024613690B400BB1012000E02D
:1012B00000207047014800687047000018000020B7
:1012C00002480068401C014908607047180000206F
:1012D00010B500240948006840F480700749086090
:1012E000032000F093F8002000F00AF808B1012470
:1012F00001E000F01DF8204610BD00000020024073
:1013000070B504460025094800684FF47A71B0FBB7
:10131000F1F6304601F094F908B1012504E000220D
:101320002146501E00F031F8284670BD1C000020F8
:1013300008B500BF0D48006E40F001000B4908667B
:101340000846006E00F00100009000BF00BF00BF23
:101350000846806D40F0805088650846806D00F03A
:101360008050009000BF00BF08BD00000010024088
:1013700000BF00F01F02012191404209920002F1DA
:10138000E022C2F8001100BF70472DE9F05F8046EF
:101390000D461646002701F0ADFB074639462A46A2
:1013A000334601F00700C0F1070ABAF1040F02D971
:1013B0004FF0040A01E0C0F1070AD14600F1040A27
:1013C000BAF1070F02D24FF0000A01E0A0F1030AC0
:1013D000D4464FF0010A0AFA09FAAAF1010A0AEA08
:1013E000020A0AFA0CFA4FF0010B0BFA0CFBABF1F4
:1013F000010B0BEA030B4AEA0B042146404601F0BD
:1014000081FB00F000B830BCBDE8C09F00BF00F019
:101410000702064B19684FF6FF031940044B0B43B4
:1014200043EA0221014B196000BF70470CED00E058
:101430000000FA050246B2F5007F2AD11D48006877
:1014400000F4C060B0F5007F32D01A48006820F484
:10145000C06040F40070174B1860174800683223D2
:101460005843164BB0FBF3F0411C00E0491E1148F5
:10147000406900F48060B0F5806F01D10029F5D19A
:101480000C48406900F48060B0F5806F10D10320F3
:1014900070470848006800F4C060B0F5806F07D05E
:1014A0000448006820F4C06040F48060014B18607C
:1014B0000020EDE7007000401C00002040420F00BB
:1014C0000248006800F4C0607047000000700040EF
:1014D0002DE9F84304460025A846208800F4006062
:1014E000B0F5006F30D1606E80B1B0F5800F13D0D1
:1014F000B0F5000F03D0B0F5400F15D113E0FB4855
:10150000C06840F48030F949C8600FE00021201D18
:1015100001F00EFB054609E0002104F1200001F076
:10152000CDFB054602E001E0012500BF00BF55B933
:10153000EE488830006820F44000616E0843EB49B3
:10154000C1F8880000E0A846208800F48050B0F57B
:10155000805F30D1A06E80B1B0F1807F13D0B0F148
:10156000007F03D0B0F1407F15D113E0DF48C068A1
:1015700040F48030DD49C8600FE00021201D01F0FB
:10158000D7FA054609E0002104F1200001F096FB9E
:10159000054602E001E0012500BF00BF55B9D34870
:1015A0008830006820F04070A16E0843CF49C1F830
:1015B000880000E0A846206800F40030B0F5003F45
:1015C00077D14FF00009C948806D012121EA1070E0
:1015D00078B100BFC548806D40F08050C349886530
:1015E0000846806D00F08050009000BF00BF4FF0B3
:1015F0000109BF48006840F48070BD490860FFF7EA
:1016000059FE074606E0FFF755FEC01B022801D928
:10161000032505E0B648006800F480700028F2D089
:1016200000BF85BBB1489030006800F44076D6B169
:10163000D4F88400B04216D0AC489030006820F452
:101640004076AA48D0F8900040F48030A749C1F80D
:1016500090000846D0F8900020F48030C1F8900047
:101660000846C0F8906006F00100A8B1FFF722FE1E
:10167000074609E0FFF71EFEC01B41F28831884291
:1016800002D9032507E017E098489030006800F081
:1016900002000028EED000BF65B994489030006881
:1016A00020F44070D4F8841008439049C1F89000A9
:1016B00003E00CE0A84600E0A846B9F1010F05D10F
:1016C0008A48806D20F080508849886500BF207866
:1016D00000F0010048B185488830006820F0030020
:1016E000A16B08438149C1F88800207800F002000E
:1016F000022809D17D488830006820F00C00E16B99
:1017000008437A49C1F88800207800F004000428D2
:1017100009D176488830006820F03000216C0843F9
:101720007249C1F88800207800F00800082809D123
:101730006E488830006820F0C000616C08436B4937
:10174000C1F88800207800F01000102809D16748FF
:101750008830006820F44070A16C08436349C1F8E8
:101760008800207800F02000202809D15F488830C8
:10177000006820F44060E16C08435C49C1F88800CF
:10178000208800F40070B0F5007F09D157488830F8
:10179000006820F44020E16D08435449C1F88800F6
:1017A000208800F48060B0F5806F09D14F48883000
:1017B000006820F44010216E08434C49C1F88800AD
:1017C000207800F04000402809D14848883000685F
:1017D00020F44050216D08434449C1F88800207826
:1017E00000F08000802809D140488830006820F44B
:1017F0004040616D08433D49C1F88800208800F4ED
:101800008070B0F5807F09D138488830006820F4B6
:101810004030A16D08433549C1F88800208800F4A4
:101820000050B0F5005F1FD130488830006820F0CC
:101830004060E16E08432D4988310860E06EB0F1E8
:10184000006F06D12948C06840F480102749C8605D
:101850000AE0E06EB0F1806F06D10121201D01F099
:1018600067F9054605B1A846206800F40020B0F5E8
:10187000002F1FD11D488830006820F04060216F84
:1018800008431A4988310860206FB0F1006F06D113
:101890001648C06840F480101449C8600AE0206F00
:1018A000B0F1806F06D10121201D01F041F90546FC
:1018B00005B1A846206800F48020B0F5802F24D11F
:1018C0000A488830006820F04060616F084307498B
:1018D00088310860606FB0F1006F0BD10348C068B9
:1018E00040F480100149C8600FE000000010024081
:1018F00000700040606FB0F1806F06D10121201DA3
:1019000001F016F9054605B1A846208800F480408C
:10191000B0F5804F1FD12248006820F04050A16FE1
:1019200008431F490860A06FB0F1805F07D1022112
:10193000201D01F0FDF805466DB1A8460BE0A06F33
:10194000B0F1005F07D1022104F1200001F0B6F9E7
:10195000054605B1A846208800F40040B0F5004FC8
:1019600009D10F48006820F08040E16F08430C491E
:101970008839C1F88800206800F48030B0F5803FD5
:101980000AD10748006820F00040D4F880100843CE
:1019900003498839C1F888004046BDE8F883000053
:1019A000881002402DE9F04104460D4614B901208B
:1019B000BDE8F0815548006800F00700A8420ED24B
:1019C0005248006820F00700284350490860084644
:1019D000006800F00700A84201D00120E8E7207865
:1019E00000F00100002840D06068032806D1484874
:1019F000006800F00070D8B90120D9E760680228BB
:101A000006D14348006800F4003088B90120CFE7D0
:101A1000606830B93E48006800F0020040B901201B
:101A2000C6E73B48006800F4806008B90120BFE7C2
:101A30003748806820F003006168084334498860B3
:101A4000FFF738FC064608E0FFF734FC801B41F244
:101A50008831884201D90320AAE72D48806800F028
:101A60000C006168B0EB810FEED1207800F002002D
:101A7000022807D12648806820F0F000A1680843BA
:101A8000234988602148006800F00700A8420ED969
:101A90001E48006820F0070028431C4908600846DB
:101AA000006800F00700A84201D0012080E72078FC
:101AB00000F00400042807D11548806820F4E06095
:101AC000E168084312498860207800F0080008287F
:101AD00008D10F48806820F46050216940EAC100B5
:101AE0000B49886000F044F809498968C1F3031183
:101AF000084A515C01F01F01C840074908600020F6
:101B0000FFF7FEFB0746384652E700000020024080
:101B100000100240503900081C00002001480068F5
:101B2000704700001C00002000B5FFF7F7FF0549D3
:101B30008968C1F30221044A515C01F01F01C840C9
:101B400000BD0000001002406039000800B5FFF73A
:101B5000E5FF05498968C1F3C221044A515C01F0DF
:101B60001F01C84000BD000000100240603900089D
:101B70002DE9F04100240020DFF800C1DCF808C0A6
:101B80000CF00C01DFF8F4C0DCF80CC00CF003071B
:101B900019B10C291ED1012F1CD1DFF8E0C0DCF8EF
:101BA00000C00CF0080CBCF1000F06D1DFF8CCC06F
:101BB000DCF894C0CCF3032405E0DFF8C0C0DCF807
:101BC00000C0CCF30314DFF8B8C05CF8244041B97E
:101BD000204606E0042901D12A4802E0082900D164
:101BE00029480C2947D1DFF894C0DCF80CC00CF070
:101BF0000305DFF888C0DCF80CC0CCF3021C0CF144
:101C00000103012D1FD0022D02D0032D1AD10CE0AB
:101C1000DFF870C0BCFBF3FCDFF86080D8F80C8004
:101C2000C8F306280CFB08F218E0DFF85CC0BCFB28
:101C3000F3FCDFF84880D8F80C80C8F306280CFBCA
:101C400008F20BE000BFB4FBF3FCDFF83080D8F8FB
:101C50000C80C8F306280CFB08F200BF00BFDFF8B9
:101C60001CC0DCF80CC0CCF3416C0CF1010C4FEA49
:101C70004C06B2FBF6F0BDE8F08100000010024017
:101C8000683900080024F40000127A002DE9F843B6
:101C9000044614B90120BDE8F883F848806800F0D4
:101CA0000C06F648C06800F00307207800F010002A
:101CB000102875D11EB10C2E74D1012F72D1EF48AE
:101CC000006800F0020018B1A06908B90120E2E73D
:101CD000EA48216A006800F0080020B1E74800687F
:101CE00000F0F00005E0E5489430006800F4706012
:101CF000000981421FD9206A01F092F808B1012041
:101D0000C9E700BFDD48006840F00800DB49086013
:101D10000846006820F0F000216A0843D7490860AF
:101D200000BF0846406820F47F40E16940EA012096
:101D3000D24948601EE000BFD048006840F008006B
:101D4000CE4908600846006820F0F000216A084388
:101D5000CA49086000BF0846406820F47F40E16936
:101D600040EA0120C5494860206A01F059F808B1ED
:101D7000012090E7FFF7FCFEC0498968C1F3031119
:101D8000BF4A515C01F01F01C840BE4908600020F5
:101D9000FFF7B6FA8046B8F1000F4ED040467AE71A
:101DA0004BE0FFE7A06980B3B448006840F0010051
:101DB000B2490860FFF77EFA054606E0FFF77AFAB7
:101DC000401B022801D9032065E7AC48006800F0F9
:101DD00002000028F2D000BFA848006840F00800C8
:101DE000A64908600846006820F0F000216A084310
:101DF000A249086000BF0846406820F47F40E169BE
:101E000040EA01209D49486017E0FFE79B480068D1
:101E100020F0010099490860FFF74CFA054606E0FA
:101E2000FFF748FA401B022801D9032033E7934803
:101E3000006800F002000028F2D1207800F00100D4
:101E400000285CD0082E03D00C2E0AD1032F08D115
:101E50008A48006800F4003088B3606878BB0120CD
:101E600019E700BF6068B0F5803F06D1834800687D
:101E700040F48030814908601AE06068B0F5A02F16
:101E80000BD17E48006840F480207C4908600846F9
:101E9000006840F4803008600AE07848006820F468
:101EA0008030764908600846006820F48020086089
:101EB00000BF606890B1FFF7FDF9054607E01EE03E
:101EC000FFF7F8F9401B642801D90320E3E66B48CB
:101ED000006800F400300028F2D010E0FFF7EAF9C3
:101EE000054606E0FFF7E6F9401B642801D9032008
:101EF000D1E66248006800F400300028F2D1207872
:101F000000F00200022852D1042E03D00C2E14D16E
:101F1000022F12D15948006800F4806018B1E068BF
:101F200008B90120B7E65548406820F0F850217CF8
:101F300040EA01605149486039E0E06800B34F4829
:101F4000006840F480704D490860FFF7B3F905461A
:101F500006E0FFF7AFF9401B022801D903209AE6FB
:101F60004648006800F480600028F2D0434840688A
:101F700020F0F850217C40EA01604049486016E0BA
:101F80003E48006820F480703C490860FFF792F9F1
:101F9000054606E0FFF78EF9401B022801D9032011
:101FA00079E63648006800F480600028F2D1207895
:101FB00000F00800082836D16069D0B12F4894306D
:101FC000006840F001002D49C1F89400FFF772F954
:101FD000054606E0FFF76EF9401B022801D90320F1
:101FE00059E626489430006800F002000028F1D03D
:101FF00019E022489430006820F001001F49C1F820
:102000009400FFF757F9054606E0FFF753F9401B28
:10201000022801D903203EE618489430006800F0F9
:1020200002000028F1D1207800F00400042870D1CB
:102030004FF000091148806D00F0805078B900BF62
:102040000E48806D40F080500C4988650846806DD0
:1020500000F08050009000BF00BF4FF001090A4817
:10206000006800F48070F0B90748006840F48070A0
:1020700005490860FFF71EF905460EE00010024012
:10208000503900081C00002000700040FFF712F9D2
:10209000401B022801D90320FDE57C48006800F4BC
:1020A00080700028F2D000BFA068012808D17848CD
:1020B000006840F0010076499039C1F8900021E0B5
:1020C000A06805280FD17248006840F004007049EC
:1020D0009039C1F890000846D0F8900040F0010017
:1020E000C1F890000EE06A48006820F001006849DD
:1020F0009039C1F890000846D0F8900020F0040014
:10210000C1F8900000BFA068A0B1FFF7D3F8054662
:1021100009E02EE0FFF7CEF8401B41F288318842FB
:1021200001D90320B7E55A48006800F002000028F2
:10213000F0D012E0FFF7BEF8054608E0FFF7BAF866
:10214000401B41F28831884201D90320A3E5504861
:10215000006800F002000028F0D1B9F1010F07D1AA
:102160004B489038806D20F08050494990398865FF
:1021700000BFA06AF0B30C2E74D0A06A022853D11D
:1021800043489038006820F08070414990390860D9
:10219000FFF790F8054606E0FFF78CF8401B022891
:1021A00001D9032077E53A489038006800F00070C4
:1021B0000028F1D1206B401E0101606B41EA002133
:1021C000A06B000941EA4040E16A0843A18F012267
:1021D000C2EB510140EA41514020005DC2EB50008A
:1021E00041EA40602A499039C8600846006840F0DA
:1021F000807000E048E008600846C06840F08070E9
:10220000C860FFF757F8054606E0FFF753F8401B94
:10221000022801D903203EE51D489038006800F0EF
:1022200000700028F1D02FE019489038006820F0A5
:1022300080701749903908600846006800F0205007
:1022400020B90846C06820F00300C86010489038E4
:10225000C068104908400E499039C860FFF72AF855
:10226000054607E00EE0FFF725F8401B022801D9DC
:10227000032010E506489038006800F00070002840
:10228000F1D101E0012006E5002004E500700040E6
:1022900090100240FFFFEEFE70B504460125002CB1
:1022A0006BD0002594F8210028B9002084F8200084
:1022B000204600F067F8022084F8210000BFCA2001
:1022C0002168486253202168486200BF204600F020
:1022D0000DFE48B100BFFF202168486200BF042006
:1022E00084F82100012548E02068806824490840DE
:1022F00021688860216960680843A16908432168F2
:1023000089680843216888602168E068086120685E
:102310000169208941EA0040216808612068C0689D
:1023200020F080002168C8602068806800F02000EC
:1023300060B9204600F068F940B100BFFF20216875
:10234000486200BF042084F821000125ADB920684F
:10235000C06C20F003002168C8646169E06908432B
:102360002168C96C08432168C86400BFFF20216848
:10237000486200BF012084F82100284670BD00009B
:10238000BFFF8FFF064A0168914207D105490968DE
:1023900041F40041034A903AC2F89010704700009F
:1023A00000280040901002402DE9F04104460D46FF
:1023B000164600BF94F82000012802D10220BDE893
:1023C000F081012084F8200000BF022084F8210061
:1023D0004EB9687800F01000102804D1687800F039
:1023E000EF000A30687096B9E87800F071FD4FEAA6
:1023F0000048687800F06CFD48EA0028A87800F0F2
:1024000067FD48EA0008287848EA403709E0E8789C
:102410000004697840EA0120A9780843297840EA55
:10242000413700BFCA2021684862532021684862B2
:1024300000BF204600F05AFD70B100BFFF202168A8
:10244000486200BF042084F8210000BF002084F807
:10245000200000BF0120B2E71848384021684860DA
:102460002068C06820F080002168C860206880680B
:1024700000F0200090B9204600F0C6F870B100BF0F
:10248000FF202168486200BF042084F8210000BFBB
:10249000002084F8200000BF012090E700BFFF204B
:1024A0002168486200BF012084F8210000BF00209D
:1024B00084F8200000BF00BF81E700003FFFFF005D
:1024C0002DE9F04104460D46174600BF94F8200060
:1024D000012802D10220BDE8F081012084F820000B
:1024E00000BF022084F8210000BFCA202168486292
:1024F00053202168486200BF204600F0F7FC70B10D
:1025000000BFFF202168486200BF042084F821003A
:1025100000BF002084F8200000BF0120DBE7DFB906
:102520002068806800F0400000B102E00020E87000
:1025300000BF287800F0CCFC4FEA0048687800F033
:10254000C7FC48EA0028A87800F0C2FC48EA000866
:10255000E87848EA805616E02068806800F040007D
:1025600020B1287800F0AAFC064602E00020E870BE
:1025700000BF28780004697840EA0120A978084360
:10258000E97840EA81561F48304021680860206899
:10259000806820F4802021688860D5E90301084321
:1025A000216889680843216888602068C06820F035
:1025B00080002168C8602068806800F0200090B921
:1025C000204600F021F870B100BFFF20216848626A
:1025D00000BF042084F8210000BF002084F8200000
:1025E00000BF012077E700BFFF202168486200BFDD
:1025F000012084F8210000BF002084F8200000BFE3
:1026000000BF68E77F7F7F0070B504462068C06820
:1026100020F0A0002168C860FEF74CFE054607E0E8
:10262000FEF748FE401BB0F57A7F01D9032070BD4C
:102630002068C06800F020000028F1D00020F6E7F4
:1026400070B504462546681EB0F1807F01D3012095
:102650000FE0681E4FF0E02148610F214FF0FF307E
:1026600000F050FA00204FF0E02188610720086157
:10267000002070BD10B504460CB9012010BDA06942
:1026800000B100E000BF94F8710028B9002084F880
:102690007000204600F02AF8242084F87100206899
:1026A000006820F0010021680860204600F074FDF9
:1026B000012800D1E2E7606A10B1204600F0B6FCC4
:1026C0002068406820F49040216848602068806855
:1026D00020F02A00216888602068006840F001002E
:1026E00021680860204600F01DFDC7E710B586B0E0
:1026F0000446142101A8FDF79EFD18492068884270
:1027000029D100BF1648806D40F400301449886517
:102710000846806D00F40030009000BF00BF00BF8D
:102720000846C06C40F00100C8640846C06C00F068
:102730000100009000BF00BF0C2001900220029019
:1027400000200390032004900720059001A94FF07A
:102750009040FEF7A5FC06B010BD0000004400400C
:10276000001002402DE9F84304460D4616461F4668
:102770004FF0000994F87100202855D105B116B921
:102780000120BDE8F88300BF94F87000012801D152
:102790000220F6E7012084F8700000BF0020606787
:1027A000212084F87100FEF785FD8146A4F8506071
:1027B000A4F8526021E04B46002280212046009779
:1027C00000F033FF08B10320DBE7A068B0F5805FBD
:1027D0000AD1206940B9A846B8F80000C0F3080043
:1027E00021680885AD1C03E015F8010B21680885F8
:1027F000B4F85200401EA4F85200B4F85200002869
:10280000D9D14B46002240212046009700F00DFF11
:1028100008B10320B5E7202084F8710000BF002034
:1028200084F8700000BFACE70220AAE700BFFEE713
:102830008168024A1140491C81607047C0FFFF7FD8
:102840000146886800F01F007047024602F16000F0
:1028500000EB8103186800F0F84070470146886873
:10286000C0F3C000704701468868C0F3400070475D
:102870000146886800F0010070470146886800F052
:102880000100704701468868C0F300707047014638
:102890008868C0F38000704701468868C0F38000F4
:1028A00070470146C86800F4406008B901207047CD
:1028B0000020FCE78168024A1140091D81607047D1
:1028C000C0FFFF7F70B500F11404C1F3406504EB55
:1028D0008503C1F304560725B5401C68AC43C1F31A
:1028E000045502FA05F52C431C6070BD826822F085
:1028F000E0720A438260704710B500F1600404EB97
:1029000081031C6824F0004414431C6010BD0000C7
:1029100000B589B0002006900790089018216846FD
:10292000FDF789FC23482449086000204860002105
:1029300021488160C1600161082141610021017667
:1029400001214176C161002180F820108162C162BD
:1029500080F830104163012180F838101C21C163D8
:102960004FF4807101640021416401218164FEF70C
:10297000C1F808B1FDF7B2FD0020069006A90E4887
:10298000FDF7AEFD08B1FDF7A9FD0C48009006204B
:102990000190002002907F200390042004900020EA
:1029A000059069460448FDF72BFE08B1FDF796FD3A
:1029B00009B000BD0000045028000020400020198C
:1029C00000B587B0142102A8FDF735FC00BF0D4803
:1029D000C06C40F001000B49C8640846C06C00F0B0
:1029E0000100019000BF00BF012002900648039043
:1029F0000020049002A94FF09040FEF751FB07B071
:102A000000BD0000001002400000111010B50022AF
:102A100011460620FEF7B9FC0620FEF7A9FC10BD02
:102A200000B587B0142102A8FDF705FC0020019035
:102A30001C481D490860002048607F211A488160B9
:102A4000FF21C1600021016141618161C161FFF726
:102A500023FC08B1FDF742FD00208DF808008DF839
:102A600009008DF80A0005900690012202A90E487F
:102A7000FFF726FD08B1FDF731FD01208DF80400B8
:102A80008DF805008DF8060000208DF80700012262
:102A900001A90548FFF788FC08B1FDF71FFD07B045
:102AA00000BD0000002800408C00002010B50D483B
:102AB0000D4908604FF41650486000210A488160B3
:102AC000C16001610C21416100218161C16101622C
:102AD0000020054948620846FFF7CCFD08B1FDF724
:102AE000FDFC10BD00440040B000002000BFFEE728
:102AF0007047000002480068C0F3022070470000E1
:102B00000CED00E010B5002807DA0A07140E054A9C
:102B100000F00F031B1FD45403E00A07130E024AF0
:102B2000135410BD18ED00E000E400E07047000011
:102B30002DE9F04104460F4600255C48C06800F0CE
:102B4000030090B15948C06800F003002168884232
:102B500009D1206838B15548C068C0F30210401C44
:102B60006168884233D0012531E02068012804D013
:102B7000022809D003281AD10DE04C48006800F063
:102B8000020000B9012514E04848006800F48060A4
:102B900000B901250DE04548006800F4003028B96F
:102BA0004248006800F4802000B9012501E00125B9
:102BB00000BF00BF5DB9D4E90010401E41EA00101B
:102BC0003A49C96821F0730108433849C860002DAB
:102BD00068D13648006820F0806034490860FEF70C
:102BE00069FB064606E0FEF765FB801B022801D95B
:102BF000032505E02D48006800F000600028F2D1B0
:102C000000BFCDBB6FB9A0680002E168090940EAC6
:102C1000414026490969264A114008432349086171
:102C200020E0012F0FD1A0680002218A0122C2EB0F
:102C3000510140EA41501D4909691E4A11400843AB
:102C40001A4908610EE0A0680002217D0122C2EB52
:102C5000510140EA416015490969174A114008438A
:102C6000124908611148006840F080600F4908600F
:102C7000FEF720FB064607E014E0FEF71BFB801B77
:102C8000022801D9032505E00848006800F000602B
:102C90000028F2D000BF2DB904480069A16908439B
:102CA000024908612846BDE8F0810000001002409A
:102CB000FF80FDFFFF809FFFFF80FFF92DE9F041BE
:102CC00004460F4600255348C06800F0030090B149
:102CD0005048C06800F003002168884209D120688C
:102CE00038B14C48C068C0F30210401C616888428B
:102CF00033D0012531E02068012804D0022809D012
:102D000003281AD10DE04348006800F0020000B922
:102D1000012514E03F48006800F4806000B90125F7
:102D20000DE03C48006800F4003028B939480068DC
:102D300000F4802000B9012501E0012500BF00BF9B
:102D40005DB9D4E90010401E41EA00103149C9685C
:102D500021F0730108432F49C860002D56D12D483A
:102D6000006820F080502B490860FEF7A3FA064661
:102D700006E0FEF79FFA801B022801D9032505E033
:102D80002448006800F000500028F2D100BF75BB55
:102D90006FB9A0680002E168090940EA41401D4995
:102DA00049691D4A114008431A4948610EE0A0686C
:102DB0000002217C0122C2EB510140EA4160154929
:102DC0004969164A11400843124948611148006890
:102DD00040F080500F490860FEF76CFA064607E0A5
:102DE000FEF768FA801B022802D9032506E00DE0F1
:102DF0000848006800F000500028F1D000BF2DB94D
:102E00000448406961690843024948612846BDE8B1
:102E1000F081000000100240FF80FDFFFF80FFF9FD
:102E2000F8B5044600262348806D00F0805018B1A4
:102E3000FEF746FB054616E000BF1E48806D40F0D9
:102E400080501C4988650846806D00F080500090D5
:102E500000BF00BFFEF734FB05461648806D20F02A
:102E6000805014498865B5F5007F07D1802C10D9B2
:102E7000A02C01D902260CE001260AE0802C01D901
:102E8000032606E0802C01D1022602E0702C00D13E
:102E900001260948006820F0070030430649086011
:102EA0000846006800F00700B04201D00120F8BDDC
:102EB0000020FCE700100240002002400146080903
:102EC00000EB8000420001F00F001044C0B27047D8
:102ED00002460023114603E05B1CA1F10A00C1B2C7
:102EE0000A29F9D2180741EA1060704770B5044604
:102EF0002068C06800F04000A8B94FF0FF3021689A
:102F0000C860FEF7D7F9054607E0FEF7D3F9401B86
:102F1000B0F57A7F01D9032070BD2068C06800F049
:102F200040000028F1D00020F6E7704710B5FEF70A
:102F3000C7F910BD00B5B9B0442128A8FDF77BF949
:102F4000142123A8FDF777F9882101A8FDF773F96B
:102F50001820289001202D902E9000202F90602086
:102F6000309002203290012128A8C16201632821FB
:102F70004163072181630221C1630164FEF786FE7C
:102F800008B1FDF7ABFA0F20239003202490002016
:102F9000259026902790042123A8FEF703FD08B171
:102FA000FDF79CFA0C480190002010904FF0405023
:102FB0001F904FF40070229001A8FEF789FA08B123
:102FC000FDF78CFA4FF40070FEF734FA08B1FDF704
:102FD00085FA39B000BD00000240020010480068C8
:102FE00040F470000E4908600E48006840F001008F
:102FF0000C49086000208860084600680A490840BB
:10300000084908608814C8600846006820F48020D9
:10301000086000208861C803014980390860704752
:1030200088ED00E000100240FFFFF6EA90F824105F
:1030300001F0010139B10168496821F40031826A67
:1030400011430268516090F8241001F00201022936
:1030500007D10168496821F48031C26A11430268CE
:10306000516090F8241001F00401042907D101688F
:10307000496821F48021026B11430268516090F885
:10308000241001F00801082907D10168496821F4DA
:103090000041426B11430268516090F8241001F026
:1030A0001001102907D10168896821F48051826BD1
:1030B00011430268916090F8241001F0200120294A
:1030C00007D10168896821F40051C26B114302687D
:1030D000916090F8241001F04001402913D101685B
:1030E000496821F48011026C114302685160016C3F
:1030F000B1F5801F07D10168496821F4C001426C15
:1031000011430268516090F8241001F08001802979
:1031100007D10168496821F40021826C11430268DB
:103120005160704738B50446002500206067FEF7FF
:10313000C1F805462068006800F0080008280CD196
:103140006FF07E402B4600224FF400110090204685
:1031500000F06BFA08B1032038BD2068006800F069
:10316000040004280CD16FF07E402B4600224FF45F
:1031700080010090204600F058FA08B10320EBE7E8
:10318000202084F8710084F8720000BF002084F8C9
:10319000700000BF00BFDFE72DE9F84F04464FF095
:1031A000000910264FF0000B0025002000908246F9
:1031B000F7492068884200D100E000BF2169A0687B
:1031C000084361690843E16940EA01092068006831
:1031D000F049084040EA090021680860206840681A
:1031E00020F44050E168084321684860D4F8189002
:1031F000E7492068884202D0206A40EA090920682D
:10320000806820F4306040EA09002168886000BFCF
:10321000E1492068884216D1E048006800F00300C8
:1032200030B1012808D0022804D0032808D105E0D5
:10323000012607E0022605E0042603E0082601E057
:10324000102600BF8CE0D6492068884216D1D348AA
:10325000006800F00C0030B1042808D0082804D021
:103260000C2808D105E0002607E0022605E0042628
:1032700003E0082601E0102600BF71E0C94920687C
:10328000884216D1C548006800F0300030B11028DF
:1032900008D0202804D0302808D105E0002607E017
:1032A000022605E0042603E0082601E0102600BF00
:1032B00056E0BD492068884216D1B848006800F041
:1032C000C00030B1402808D0802804D0C02808D1E0
:1032D00005E0002607E0022605E0042603E00826B4
:1032E00001E0102600BF3BE0B0492068884219D1B8
:1032F000AA48006800F4407048B1B0F5807F0AD059
:10330000B0F5007F05D0B0F5407F08D105E000267C
:1033100007E0022605E0042603E0082601E0102667
:1033200000BF1DE09A492068884219D19B48006877
:1033300000F4406048B1B0F5806F0AD0B0F5006F7E
:1033400005D0B0F5406F08D105E0002607E0022661
:1033500005E0042603E0082601E0102600BF00BFB8
:1033600000BF8B492068884272D1042E10D003DC44
:103370003EB1022E13D108E0082E0DD0102E0ED132
:103380000EE0FEF7D1FB82460DE0DFF824A20AE052
:10339000FEF7EEFB824606E04FF4004A03E000BF72
:1033A0000120009000BF00BFBAF1000F0AD0606892
:1033B00000EB4000504503D860680003504502D23E
:1033C0000120009025E1042E2ED003DC3EB1022E18
:1033D00051D118E0082E3CD0102E4CD14CE0FEF715
:1033E000A3FB4FF48071A0FB0131606840081F18F7
:1033F00041F10001D4F804C0624600233846FCF7CE
:10340000DFFE05463BE0D4F804C04FEA5C00002133
:10341000684BC71841EB010862460B4638464146E7
:10342000FCF7CEFE05462AE0FEF7A2FB4FF48071C2
:10343000A0FB0130616849085F1840F10001D4F831
:1034400004C0624600233846FCF7BAFE054616E083
:1034500022E0D4F804C04FEA5C0000214FF40003DE
:10346000C71841EB010862460B4638464146FCF757
:10347000A7FE054603E000BF0120009000BF00BF8B
:10348000B5F5407F05D3B5F5801F02D22068C56031
:10349000BFE001200090BCE0E069B0F5004F57D1DB
:1034A000042E28D005DC4EB1012E11D0022E36D1CB
:1034B00018E0082E29D0102E31D131E0FEF734FB70
:1034C0004000616800EB5100B0FBF1F085B22AE0EA
:1034D000FEF73CFB4000616800EB5100B0FBF1F0EF
:1034E00085B220E03449606801EB50006168B0FBB0
:1034F000F1F085B217E0FEF73BFB4000616800EB9E
:103500005100B0FBF1F085B20DE04FF480316068FE
:1035100001EB50006168B0FBF1F085B203E000BF41
:103520000120009000BF00BF102D0ED3B5F5803FE5
:103530000BD24FF6F07005EA000BC5F342004BEAE0
:10354000000B2068C0F80CB063E00120009060E040
:10355000042E3CD005DC4EB1012E10D0022E49D1F4
:103560002CE0082E3CD0102E44D144E0FEF7DCFACB
:10357000616800EB5100B0FBF1F085B23EE0FEF770
:10358000E5FA616800EB5100B0FBF1F085B235E07F
:1035900000800040F369FFEF0038014088100240CE
:1035A0000044004000480040004C004000500040F3
:1035B0000024F400000024F40048E8011849606881
:1035C00001EB50006168B0FBF1F085B216E0FEF748
:1035D000CFFA616800EB5100B0FBF1F085B20DE06D
:1035E0004FF40041606801EB50006168B0FBF1F0FE
:1035F00085B203E000BF0120009000BF00BF102D86
:1036000005D3B5F5803F02D22068C56001E00120F6
:103610000090002020666066009800F003B800006B
:103620000024F40018BCBDE8E08F2DE9F041044609
:103630000D4617469846069E21E0701CF8B12EB143
:10364000FDF738FEA0EB0800B04218D920680068EA
:1036500020F4D070216808602068806820F00100A4
:1036600021688860202084F8710084F8720000BF0F
:10367000002084F8700000BF0320BDE8F0812068BE
:10368000C0692840A84201D1012000E00020B842D2
:10369000D3D00020F1E700BFFEE702E008C8121F08
:1036A00008C1002AFAD170477047002001E001C12B
:1036B000121F002AFBD1704737B5072000F0B4F87D
:1036C00004469DF8000020709DF8010060709DF890
:1036D0000200A07001980078E07001984078207195
:1036E0000198807860710198C078A07120463EBD35
:1036F00010B5002821D0114B0022001F196803E0EB
:10370000814203D80A4649680029F9D152B11368A9
:10371000841A9C4204D1006818441060104602E0EC
:10372000506000E0186039B102680B1A934203D16F
:103730000B681A4402604968416010BD20000020F7
:103740000EB5FDF7C5FDFFF7F5FBFFF739F9FFF7FC
:10375000DFF8FFF765F9FFF7A9F9FFF757F950E030
:103760000020284908702848FDF7A6FB4FF47A701E
:10377000FDF755FC25492448FDF706FB20B92248F2
:10378000FDF7B3F9224908602148006800F0BEF84F
:103790001F4908600846006800F07CF802901D4848
:1037A000029901600068029000F09CF81A490860D4
:1037B00008460168684600F07DF818489DE80E004C
:1037C0000EC00C3807C8FFF777FF154908604FF4A3
:1037D0007A730922084601681248FEF7C3FF0E48B3
:1037E0000068FFF785FF0D494868FFF781FF0C4827
:1037F0000068FFF77DFF0120024908700248FDF7CD
:10380000E9FBADE7140000202800002040420F0033
:1038100000000020040000200800002028010020F3
:103820000C000020B0000020F0B50B30154D20F04A
:1038300007010024144A0FE003688B420BD38B422C
:1038400005D95E1A43184768C3E9006700E043687A
:10385000136002C004E0021D10680028ECD120466D
:10386000002802D1286808B10020F0BD064A0748A8
:103870001060074A121A22F00702C0E90024012052
:103880002860D7E724000020200000203C01002011
:103890003803002008B50146080E8DF80000080C1A
:1038A0008DF80100080A8DF80200C8B28DF80300F7
:1038B000009808BD3EB504460D4652208DF8000024
:1038C0004F208DF8010042208DF802000420FFF700
:1038D000ABFF01900195002002909DE8070084E86D
:1038E00007003EBD31B50420FFF79EFF04469DF85A
:1038F000000020709DF8010060709DF80200A0702B
:103900009DF80300E070204638BD0000014600EE3F
:10391000901AF8EE600A9FED0C1A60EE810AB0EE84
:10392000600ADFED0A0A60EE200AFCEEE00A10EE03
:10393000902ADFED060A60EE200AB0EE600AFCEE87
:10394000C00A10EE900A7047AE16473A00007A445B
:10395000000000000000000001020304060708093F
:103960000000000001020304A0860100400D0300D6
:10397000801A060000350C0040420F0080841E00B3
:1039800000093D0000127A000024F40000366E01A8
:103990000048E801006CDC02B83900080000002093
:1039A000280000009A360008E039000828000020AE
:1039B00010070000AA360008000000000000000008
:1039C00000000000000000000000000000000000F7
:1039D0000000000000093D000000000000000000A1
:040000050800018965
:00000001FF
