:020000040800F2
:10000000E0080020A90100080F1A0008B115000837
:100010000D1A00083F060008DD1E00080000000061
:10002000000000000000000000000000E91A0008C5
:100030004106000800000000311A0008EB1A000811
:10004000C3010008C3010008C3010008C301000880
:10005000C3010008C301000845060008C3010008E9
:10006000C3010008C3010008C3010008C301000860
:10007000C3010008C3010008C3010008C301000850
:10008000C3010008C3010008C3010008000000000C
:10009000000000000000000000000000C301000894
:1000A000C3010008C3010008C3010008C301000820
:1000B000C3010008C3010008C3010008C301000810
:1000C000C3010008C3010008C3010008C301000800
:1000D000C3010008C3010008C301000800000000BC
:1000E000C3010008C3010008C301000800000000AC
:1000F000000000000000000000000000C301000834
:1001000000000000C3010008C3010008C30100088B
:1001100000000000000000000000000000000000DF
:10012000C3010008C3010008C3010008C30100089F
:10013000C3010008000000000000000000000000F3
:10014000000000000000000000000000C3010008E3
:10015000C3010008C3010008C3010008C30100086F
:10016000C3010008C30100080000000000000000F7
:10017000000000000000000000000000000000007F
:1001800000000000C30100080000000000000000A3
:10019000C3010008DFF80CD000F08CF800480047DD
:1001A000A1300008E00800200648804706480047C4
:1001B000FEE7FEE7FEE7FEE7FEE7FEE7FEE7FEE717
:1001C000FEE7FEE7791B0008950100082DE9F05FC6
:1001D0000546002092469B468846064681464024B6
:1001E0001BE0284641464746224600F053F8534656
:1001F0005A46C01A914110D311461846224600F0C3
:100200003AF82D1A67EB01084F46224601200021DB
:1002100000F031F817EB00094E41201EA4F1010453
:10022000DFDC484631462A464346BDE8F09F40EAB7
:1002300001039B0703D009E008C9121F08C0042A64
:10024000FAD203E011F8013B00F8013B521EF9D24B
:100250007047D2B201E000F8012B491EFBD2704773
:100260000022F6E710B513460A4604461946FFF782
:10027000F0FF204610BD202A04DB203A00FA02F1EC
:10028000002070479140C2F1200320FA03F3194384
:1002900090407047202A04DB203A21FA02F0002126
:1002A000704721FA02F3D040C2F120029140084386
:1002B00019467047064C074D06E0E06840F0010320
:1002C00094E8070098471034AC42F6D3FFF766FF76
:1002D000F032000810330008F0B520A193B00FC928
:1002E00006AC84E80F0021A10AAC0FC984E80F0016
:1002F00022A30EAC0FCB84E80F0024480090072304
:10030000012206A9022002F053FA20BB1F48002652
:10031000801C0124102502960590CDE90354CDE9F7
:100320000056A0F10E0714230AAA0221B88902F090
:10033000E4F980B907F11000CDE904400C20CDE9C3
:100340000006CDE9024514230EAA0221B88902F065
:10035000D4F9002800D0472013B0F0BD669A0C20D5
:100360000008969EE2119EB1E0F273D9669A0C20C5
:100370000008969EE2119EB1E1F273D9669A0C20B4
:100380000008969EE2119EB1E2F273D91800002097
:10039000094B30B41C8A641CA04203D130BC104607
:1003A00002F09CBED989891C884203D110780128AB
:1003B00000D1587030BC70470C00002010B51049B7
:1003C00086B001EB80140F48016841F400310160F0
:1003D0000068694600F4003005900C20009002206F
:1003E000019001200290032003900720049006480A
:1003F00000F03CFA204601F053F906B0002010BD91
:10040000C4010020403802400000024000F000BB60
:1004100070B50446114886B0016841F001010160E1
:1004200000680F4E00F0010005900120019002903D
:10043000022003900B4D36F81400009055F824006C
:10044000694600F013FA36F8141055F8240000221B
:1004500000F0D9FA06B0002070BD0000303802402C
:10046000CE32000828000020054910B5054A31F8B1
:10047000101052F82000002200F0C5FA002010BD34
:10048000CE32000828000020054910B5054A31F891
:10049000101052F82000012200F0B5FA002010BD23
:1004A000CE32000828000020054910B5054A31F871
:1004B000101052F8200000F0A2FA002010BD000039
:1004C000CE32000828000020704700000349044A8B
:1004D00031F8101052F8200000F08CBAD032000829
:1004E0002C00002030B50446254887B0051F0022A7
:1004F00045F824002348036843F0040303600068C0
:1005000000F004000590204830F81400009002200C
:10051000CDE90220A5F1100011B1012907D02BE08F
:10052000019250F82400694600F0A0F924E0174930
:10053000019150F82400694600F098F91248001D16
:1005400050F8241055F8240000F0E8F80C48002179
:100550000C3850F8242055F8240000F0F7F808482B
:10056000094D08382D1F50F824102857002200F09C
:10057000BDFA285700F0AEFA07B0002030BD0000E9
:100580004000002030380240D03200080000111036
:100590002DE9F041194986B0174808600024084643
:1005A00000F04CFD20BB1648A046016841F4805184
:1005B00001600068022500F480500590C0208DE89D
:1005C00021010326052769460E48CDE9036700F09F
:1005D0004DF908208DE8210169460B48CDE90367F4
:1005E00000F044F9054801F03DF808B16FF0070448
:1005F00006B02046BDE8F081003001406C010020CB
:1006000044380240000002400004024038B515465C
:100610004FF47A7200920A4601466FF005042B46A9
:10062000034800F04FFD00B92C46204638BD0000BD
:100630006C01002010B50020FFF746FF10BDFEE75B
:1006400070470000014800F06FB800000000002073
:1006500070B505460A4801224261C18009A001F037
:10066000ADFC05240DA0295D01F0A8FC641E002C42
:10067000F8DC2978BDE870400AA001F09FBC0000BA
:100680000C000020436F6E6E656374656420746FA8
:10069000206465766963653A0000000025303258B1
:1006A0002D000000253032580A00000070B5074CBC
:1006B0000025656106A001F081FC012020706570B5
:1006C000A570E5702571657170BD00000C000020FB
:1006D000446973636F6E6E65637465640A0000003D
:1006E000044B1B895B1C984202D1104602F0F6BCF9
:1006F000704700000C00002070B5044600F088F937
:100700000546601C02D004480078044400F080F9DB
:10071000401BA042FAD370BD4800002010B1016018
:100720000020704701207047017801F01F0201216D
:100730009140054A13680B4204D0116040680028BC
:1007400000D0004770470000143C014003460020E1
:1007500009B1012070475A60704700002DE9F04F41
:10076000DFF8ECB000224FF001094FF00F0A00BF94
:1007700009FA02F401EA0403A34264D106685700AF
:100780000325BD40AE430660D60800EB8607D7F8C8
:1007900020C056074FEAD6680AFA08F62CEA060C7B
:1007A000C7F820C08668AE4386604668A6434660A8
:1007B000C468AC43C46022F003055D44D5F8086802
:1007C0009407270F0AFA07F4DFF888C0264060452F
:1007D00002D14FF0000C1DE0DFF87CC0604502D173
:1007E0004FF0010C16E0DFF874C0604502D14FF005
:1007F000020C0FE0DFF868C0604502D14FF0030C37
:1008000008E0DFF860C0604502D14FF0040C01E061
:100810004FF0070C0CFA07FCB44514D1D5F8086862
:10082000A643C5F80868104C25689D432560241D23
:1008300025689D432560241D25689D432560241D52
:1008400025689D432560521C102A91D3BDE8F08F86
:100850000030014000000240000402400008024055
:10086000000C024000100240003C01402DE9F84F0E
:10087000DFF860B100224FF001084FF0030A4FF09B
:100880000F090BF1040E00BF0B6808FA02F42340B5
:10089000A3426ED14D68022D01D0122D0ED1D50884
:1008A00000EB850CDCF820505607F70E09FA07F626
:1008B000B5430E69BE402E43CCF820600668550053
:1008C0000F790AFA05FC07F0030726EA0C06AF4089
:1008D000374307604E68012E05D0022E03D0112E3B
:1008E00001D0122E0ED18668CF6826EA0C06AF40E2
:1008F000374387604668A6430C79C4F300149440DC
:1009000034434460C6688C6826EA0C06AC40344325
:10091000C4604C68E40056D52F4C256845F48045EA
:100920002560246822F0030504F4804400942B4CD5
:100930002E19D6F8084895072F0F09FA07F5AC438A
:10094000274DA84201D1002515E0264DA84201D12E
:10095000012510E0244DA84201D102250BE0234DD2
:10096000A84201D1032506E0214DA84202D1042569
:1009700001E028E00725BD402543C6F80858DBF80C
:1009800000405D464E689C43F60300D51C432C6036
:10099000DEF8004075464E689C43B60300D51C4304
:1009A0002C600C4D08352C684E689C43F60200D52F
:1009B0001C432C60074D0C352C684E689C43B602D6
:1009C00000D51C432C60521C102AFFF45DAFBDE81B
:1009D000F88F0000003C01404438024000300140E4
:1009E000000002400004024000080240000C0240E7
:1009F000001002400069084000D0012070474269A1
:100A00004A40426170470AB1816170470904FBE7BF
:100A10000148806870470000480000200248816853
:100A20000278114481607047480000200B4810B5DF
:100A3000016841F400710160016841F48061016066
:100A4000016841F480710160032000F06FF800201C
:100A500000F006F800F024F8002010BD003C024031
:100A600070B50D4D04464FF47A712878B1FBF0F063
:100A70000A490968B1FBF0F000F010FC48B9102CED
:100A800007D200222146501E00F030F800206C6092
:100A900070BD012070BD00004800002054000020FF
:100AA0000B4882B0016841F480410160006800F4A5
:100AB000804000900648001F016841F080510160AD
:100AC000006800F080500090072002B000F02EB8BF
:100AD0004438024000F01F0201219140400980008B
:100AE00000F1E020C0F8001170470000F0B40E4B98
:100AF0001B680C46C3F30223C3F10705042D00D97C
:100B00000425191D072901D2002300E0DB1E012660
:100B100006FA05F1491E214099409E40761E164076
:100B20003143F0BC00F074BF0CED00E0064900F06A
:100B3000070208684FF6FF03184040EA0220034A04
:100B400010430860704700000CED00E00000FA055B
:100B50002DE9F0470E46050065D0DFF81481D8F87E
:100B60000000F7B200F00F00B04207D288F8007022
:100B7000D8F8000000F00F00B04254D128683D4C76
:100B8000810712D5400703D5206840F4E05020606B
:100B90002878000703D5206840F460402060206872
:100BA000A96820F0F000084320602878C0072DD005
:100BB000304968680839012812D0022813D0032868
:100BC00011D00968890700292DDA216821F0030175
:100BD00001432160FFF71CFF814641F2883A0EE095
:100BE00009688903EFE709688901ECE7FFF710FF5F
:100BF000A0EB0901514502D90320BDE8F087206828
:100C0000696800F00C00B0EB810FEFD1D8F800104C
:100C1000404601F00F01B14207D90770006800F0AB
:100C20000F00B04201D00120E7E72878400705D542
:100C30002068E96820F4E050084320602878000725
:100C400006D52068296920F4604040EAC100206090
:100C500000F036F82168084AC1F30311515CC8401E
:100C6000064908600020FFF7FBFE0020C5E70000F2
:100C7000003C024008380240D832000854000020EE
:100C80000448054900680968044AC1F38221515C9F
:100C9000C84070475400002008380240E83200087D
:100CA0000448054900680968044AC1F34231515CAF
:100CB000C84070475400002008380240E83200085D
:100CC000154810B5006810F00C02144813D04110FC
:100CD000042A0FD0082A0ED10F4C241F2268236843
:100CE00002F03F025B0207D52068C0F38810A0FB2A
:100CF000010106E0084610BD2168C1F38811A1FB7F
:100D000000010023FFF762FA2168C1F30141491C89
:100D10004900B0FBF1F010BD083802400024F40097
:100D20002DE9F84F050076D02878DFF8F8B2BE4CF0
:100D3000C00749D0DBF800105846C1F381010129F2
:100D400008D00068C0F3810002280AD1201D006885
:100D5000400206D52068800336D568680028E2D0B6
:100D600032E06868B0F5803F10D0B0F5A02F206861
:100D700010D020F480302060206820F48020206093
:100D80006868A0B1FFF744FE06460CE0206840F416
:100D90008030F4E740F480202060F7E7FFF738FE6A
:100DA000801B642873D820688003F7D50CE0FFF718
:100DB0002FFE064605E000BFFFF72AFE801B6428D1
:100DC000F0D820688003F7D42878DFF860828007A5
:100DD0004FF000093ED5DBF80010584611F00C0F1B
:100DE00009D00068C0F3810002280BD18D48001F94
:100DF0000068400206D42068800715D5E8680128FD
:100E000009D111E0E868B8B10120C8F80000FFF787
:100E1000FFFD064605E002E1FFF7FAFD801B022810
:100E2000C0D820688007F7D52068296920F0F8002D
:100E300040EAC10020600DE0C8F80090FFF7E8FD2F
:100E4000064604E0FFF7E4FD801B02281FD8206857
:100E50008007F7D42878000722D5724E7448696954
:100E60006C3671B101210160FFF7D2FD074604E045
:100E7000FFF7CEFDC01B022809D830688007F7D5E0
:100E80000EE0C0F80090FFF7C3FD074605E083E0E1
:100E9000FFF7BEFDC01B02287ED830688007F7D45C
:100EA0002878400768D5DFF87CA100270AF1380AC6
:100EB000DAF80000C0000BD4DAF8001041F08051DD
:100EC000CAF80010DAF80000012700F08050009006
:100ED000584E3068C00510D4306840F480703060DF
:100EE000FFF796FD009005E0FFF792FD0099401A8C
:100EF000022851D83068C005F6D54A4EA868683631
:100F000001280FD00528306810D020F00100306093
:100F1000306820F004003060A868B8B1FFF778FDB1
:100F200000900FE0306840F00100F4E740F004006A
:100F30003060F7E7FFF76CFD0099411A41F2883005
:100F4000814264D830688007F4D50EE0FFF760FD79
:100F5000009007E0FFF75CFD0099411A41F28830EC
:100F6000814254D830688007F4D42FB1DAF80010E9
:100F700021F08051CAF80010A869C0B3DBF8001056
:100F8000C1F3810102294AD00228484607D0C8F897
:100F90006000FFF73DFD00E039E005463AE04746D6
:100FA000C8F86000FFF734FD064604E0FFF730FDA7
:100FB000801B02282BD820688001F7D4D5E90701CF
:100FC0000843A96A1C4A490802EB01416A6A41EADE
:100FD0008211084395F82C1040EA01611148001F66
:100FE000016001203866FFF713FD054605E014E0B7
:100FF000FFF70EFD401B022809D820688001F7D5B5
:101000000BE000BFFFF704FD401B022802D90320BC
:10101000BDE8F88F20688001F4D40020F8E70120B3
:10102000F6E700000838024000380240000047425E
:10103000800E4742007000400000FFFF90F8510012
:10104000704770B5040005D00025A56294F85100E2
:1010500010B106E0012070BD84F85050204600F029
:1010600030F8022084F851002068016821F0400126
:101070000160D4E901010843D4E903121143084394
:1010800061690843218B01F400710843E169084359
:10109000216A0843A16A084321680860A069042105
:1010A00001EA1040616A0843216848602068C1690C
:1010B00021F40061C1616565012084F851000020C0
:1010C00070BD70472DE9F84F044690F85000002697
:1010D0000A9F9A4693460D464FF0010801280ED00C
:1010E000012084F85000FFF793FC814694F85100EA
:1010F000616801280CD0B1F5827F07D102E002209F
:10110000BDE8F88FA16809B9042801D00226BDE026
:1011100055B1BBF1000F07D0BAF1000F04D094F81D
:101120005100012802D004E00126AFE0052084F838
:10113000510000206065C4F838B0A4F83EA0A4F8BF
:101140003CA02563A4F836A0A4F834A02064606411
:1011500020680168490603D4016841F0400101603C
:10116000E068B0F5006F606804D0E8B3E08E012855
:101170003BD06AE010B1E08E01282ED1216835F80D
:10118000020BC860E08E401EE08626E0B8F1000F3A
:101190000DD0E08E58B120688168890707D535F8F1
:1011A000021BC160E08E401EE0864FF00008E08F19
:1011B00058B120688168C90707D0C0682BF8020BB6
:1011C000E08F401EE0874FF00108781C05D0FFF744
:1011D0001FFCA0EB0900B84246D2E08E0028D5D112
:1011E000E08F0028D2D136E0FFE7216815F8010B27
:1011F0000873E08E401EE08627E000BFB8F1000FC4
:101200000DD0E08E58B120688168890707D515F8A0
:10121000011B0173E08E401EE0864FF00008E08F56
:1012200058B120688168C90707D0C0680BF8010B66
:10123000E08F401EE0874FF00108781C05D0FFF7D3
:10124000E7FBA0EB0900B8420ED2E08E0028D5D112
:10125000E08F0028D2D13B46012202212046CDF862
:10126000009000F0F6FB08B103260FE04A4639462D
:10127000204600F0DEFB18B101262020606505E065
:10128000A06818B92068C16880680090012084F8BF
:101290005100002084F85000304631E710B5401E60
:1012A000B0F1807F01D3012010BD4FF0E0246061D8
:1012B0000F21601700F0ACFB0020A0610720206127
:1012C000002010BD70B5040004D094F8390000254A
:1012D00010B106E0012070BD84F83850204600F0BF
:1012E00022F8242084F839002068C16821F40051D4
:1012F000C160204600F06AFC2068016921F4904139
:1013000001612068416921F02A0141612068C168BA
:1013100041F40051C160E563202084F8390084F86D
:101320003A00002070BD70472DE9F843044690F85C
:1013300039001F4616460D46202850D1A5B19EB152
:1013400094F8380001284AD0012084F838004FF082
:101350000008C4F83C80212084F83900FFF758FBCE
:10136000A6848146E68426E00120BDE8F883E08C6F
:10137000401EE084A0684B46B0F5805F4FF000024D
:101380004FF080012046009703D000F075FDE8B9CA
:101390000DE000F071FDC8B928882168C0F308008D
:1013A0004860206908B16D1C05E0AD1C03E02168B0
:1013B00015F8010B4860E08C0028D8D14B4600227C
:1013C00040212046009700F057FD08B10320CCE7EC
:1013D000202084F8390084F838800020C5E70220F6
:1013E000C3E7000010B5074C01212046FFF7B6F90E
:1013F00002212046FFF7B2F9A1152046FFF7AEF90A
:10140000002010BD0000024070B5154886B00024D1
:10141000016841F0010101600068012500F0010050
:10142000009505900F48CDE901040F4E69463046FE
:10143000FFF71CFA28020090CDE9015469463046B6
:101440000394FFF713FA02200090CDE90154694696
:1014500030460394FFF70AFAFFF79AF806B070BD1A
:101460003038024000001110000002402DE9F04128
:1014700086B00E460746FF2019A18DF81400D1E969
:101480000001CDE90301DFF860800024224602213B
:101490004046FFF7B8FA052201A903A8FFF7B6F8FE
:1014A0009DF80400022812D1BDF807507DB1B54265
:1014B0000BD9354609E00122694605A8FFF7A6F8D1
:1014C0009DF800003855641CE4B2AC42F3D301220D
:1014D00002214046FFF797FA06B02046BDE8F081AA
:1014E0000B000000000000000000024070B50A4D33
:1014F0004FF48074002221462846FFF784FA052025
:10150000FFF7FAF8012221462846FFF77CFA05206A
:10151000FFF7F2F8002070BD000002402DE9FF4700
:1015200089461FA18246D1E90001CDE90201FFF7FA
:101530006FFA1D4E05466FF001084FF0FF3700248B
:10154000224602213046FFF75EFA0522694602A8CC
:10155000FFF75CF89DF8000002280DD03C46012200
:1015600002213046FFF74FFAFFF752FA401B0F28CF
:101570000FD96FF002040EE09DF80110484649456E
:1015800005D3024609495046FFF740F8E7E74446CD
:10159000E5E7002CD3DB04B02046BDE8F08700006F
:1015A0000A00000000000000000002406C00002063
:1015B000FEE700002DE9F04186B014216846FEF7F1
:1015C0004FFE24480024016841F0040101600168D5
:1015D00001F004010591016841F001010160016819
:1015E00001F001010591016841F00201016000680C
:1015F000DFF8648000F002004FF49177059000223C
:1016000039464046FFF7FFF9144D4FF40050CDE93D
:101610000005694602941248FFF728F90126009652
:10162000CDE9015469464046FFF720F90097CDE91E
:101630000164694640460394FFF718F900221146F9
:101640000620FFF753FA0620FFF744FA06B0BDE87C
:10165000F08100003038024000000240000011100C
:101660000008024010B50D49016000244FF482715A
:10167000C0E90114C4604FF400720461C0E905427E
:101680001022C0E9072444620A21C0E90A41FFF799
:10169000D8FC00B10124204610BD000000300140FC
:1016A00010B50949016000244FF4E131C0E901148B
:1016B0000C22C460C0E904428461C461FFF702FEE9
:1016C00000B10124204610BD004400402DE9F04344
:1016D0004BA08BB0D0E900674BA00021D0E90045BA
:1016E0000846FEF7FFFE0020FEF792FE0020FEF700
:1016F00065FE0021464801F051FA05A904A801F051
:1017000027FA01F025FBBDF814209DF8101041A028
:1017100000F054FC9DF8101043484FF001093029A7
:1017200001D980F8009080464078002834D0CDE977
:10173000064506AA0621002001F0A7F9010002D003
:101740003AA000F03BFC01F0B5F810B13FA000F06A
:1017500035FC98F801204446012A98F8002009A990
:1017600008A81CD0012A28D00B4602460AA903204B
:1017700000F0B7FE10B13AA000F020FC00223D4975
:101780001023CDE90032CDE90219072311460120CB
:1017900000F013FFD0B11CE0CDE90667C9E7012ACC
:1017A00004D00B4602460AA90120E1E7CDE9000179
:1017B000072200210AAB012005E0CDE900010AABB8
:1017C00007220021042000F0C0FED3E72AA000F089
:1017D000F5FB6078012801D02DA006E034A000F0D0
:1017E000EDFBFEF779FD48B139A000F0E7FB0421DD
:1017F000012001F026F90BB0BDE8F0833CA0F4E72E
:10180000BB0000E180020000AA0000E180020000AD
:10181000CD31000848577665722025642C20465744
:101820007665722025640A000800002053657474F0
:10183000696E672042445F41444452206661696C8E
:101840006564203078253032782E0A0047415454A0
:101850005F496E6974206661696C65642E0A0000D8
:101860004741505F496E6974206661696C65642EFA
:101870000A00000040E20100424C452053746163BD
:101880006B20496E697469616C697A65642E0A001F
:10189000434C49454E543A20424C452053746163B1
:1018A0006B20496E697469616C697A65640A00002D
:1018B0005345525645523A20424C45205374616379
:1018C0006B20496E697469616C697A65640A00000D
:1018D0004572726F72207768696C65206164646913
:1018E0006E6720736572766963652E0A00000000DA
:1018F00053657276696365206164646564207375FD
:10190000636365737366756C6C792E0A0000000062
:1019100010B500F0E5FABDE8104001F03FBB000053
:1019200010B523488CB000240078D8B121A30DF164
:101930001C0C0FCB8CE80F000021084601F09AF92F
:1019400005940394049407A80D2106940094CDE90E
:10195000011000234FF480525110184600F067FE2A
:101960000CB010BD17A000F029FB1DA1D1E90001AA
:10197000CDE907010020FEF787FD4FF4FA603C2116
:10198000CDE9041006902820CDE9004002904FF4E4
:101990008040039407AB0022014600F060FD002860
:1019A000DED011A000F00AFB6420FEF7A5FED7E709
:1019B0000900002009426C75654E52475F4368611B
:1019C00074000000436C69656E7420437265617435
:1019D0006520436F6E6E656374696F6E0A00000068
:1019E000AA0000E1800200004572726F72207768E1
:1019F000696C65207374617274696E6720636F6EC1
:101A00006E656374696F6E2E0A000000FEE7704712
:101A10000907090E002806DA00F00F0000F1E020A7
:101A200080F8141D704700F1E02080F80014704722
:101A3000704738B50B46009204460022802100F022
:101A400008F8002804D0606D40F020006065032095
:101A500038BD2DE9F0411D4617460E460446DDF817
:101A6000188035E0681C33D02DB1FEF7D1FFA0EB14
:101A70000800A8422CD32068416821F0E0014160B1
:101A80006068B0F5827F0BD1A068B0F5004F02D03E
:101A9000B0F5806F04D12068016821F04001016039
:101AA000A06AB0F5005F0AD1206801684DF6FF72A8
:101AB000114001602068016841F40051016001207B
:101AC00084F85100002084F850000320BDE8F08124
:101AD0002068806836EA000004D00020B842C1D1F6
:101AE0000020F3E70120F9E77047FEF797BF0000F9
:101AF00030B593B030216846FEF7B2FB14210CA834
:101B0000FEF7AEFB1A480024016841F080510160E5
:101B1000006800F0805011901648016821F440419F
:101B200041F4004101600068022500F4404011903A
:101B3000012003901020009506950490CDE9074000
:101B40004FF4A870099004200A9007200B90684673
:101B5000FFF7E6F80F20CDE90C054FF4A050CDE9D2
:101B60000E4002210CA81094FEF7F2FF13B030BD16
:101B700040380240007000401048016841F4700194
:101B800001600F48016841F0010101600C4A002129
:101B90000832116002680B4B1A400260031D0A4AAA
:101BA0001A60026822F48022026005480C3001604D
:101BB00002495806803908607047000088ED00E04F
:101BC00000380240FFFFF6FE103000242DE9F041FE
:101BD00004460068016921F44052E1681143016143
:101BE0002168C86849F20C6290432369A268E569DC
:101BF0001A4363692B431A430243CA602168486948
:101C000020F44072A06910434861E1696425B1F590
:101C1000004F9748974A21684FF032083FD09142D1
:101C200001D081427CD1FFF73BF800EBC00101EB12
:101C3000001061688900B0FBF1F6FFF731F800EBA6
:101C4000C00101EB001061688900B0FBF1F0B0FB4E
:101C5000F5F06FF01801484306EB800108EB011026
:101C6000B0FBF5F000F0F006FFF71AF800EBC0014A
:101C700001EB001061688900B0FBF1F0B0FBF5F0FA
:101C800006EB0016FFF70CF800EBC00101EB0010AB
:101C900061688900B0FBF1F7FFF702F8D2E09142EA
:101CA00001D081423DD1FEF7FBFF00EBC00101EB0B
:101CB000001061684900B0FBF1F0B0FBF5F00601DF
:101CC000FEF7EEFF00EBC00101EB00106168490078
:101CD000B0FBF1F7FEF7E4FF00EBC00101EB0010F1
:101CE00061684900B0FBF1F0B0FBF5F06FF018014E
:101CF000484307EB800108EBC100B0FBF5F000F0B2
:101D0000F80006EB4006FEF7CBFF00EBC00101EB4D
:101D1000001061684900B0FBF1F7FEF7C1FF3CE03D
:101D200055E0FEF7ADFF00EBC00101EB001061686C
:101D30004900B0FBF1F0B0FBF5F00601FEF7A0FFA3
:101D400000EBC00101EB001061684900B0FBF1F746
:101D5000FEF796FF00EBC00101EB0010616849003F
:101D6000B0FBF1F0B0FBF5F06FF01801484307EB62
:101D7000800108EBC100B0FBF5F000F0F80006EBC5
:101D80004006FEF77DFF00EBC00101EB001061682B
:101D90004900B0FBF1F7FEF773FF00EBC00101EB68
:101DA000001061684900B0FBF1F0B0FBF5F06FF096
:101DB0001801484307EB800108EBC100B0FBF5F0C8
:101DC00000F00700216830448860BDE8F081FEF72C
:101DD00057FF00EBC00101EB001061688900B0FB08
:101DE000F1F6FEF74DFF00EBC00101EB001061685A
:101DF0008900B0FBF1F0B0FBF5F06FF0180148433B
:101E000006EB800108EB0110B0FBF5F000F0F006E6
:101E1000FEF736FF00EBC00101EB0010616889009E
:101E2000B0FBF1F0B0FBF5F006EB0016FEF728FF73
:101E300000EBC00101EB001061688900B0FBF1F715
:101E4000FEF71EFF00EBC00101EB00106168890086
:101E5000B0FBF1F0B0FBF5F06FF01801484307EB71
:101E6000800108EB0110B0FBF5F000F00F00A9E7CE
:101E700000140140001001402DE9F041984617463A
:101E80000E460446069D1DE0681C1BD02DB1FEF7D2
:101E9000BFFDA0EB0800A84214D92068C16821F456
:101EA000D071C1602068416921F0010141612020A9
:101EB00084F8390084F83A00002084F838000320C0
:101EC000BDE8F0812068006836EA000004D00020F8
:101ED000B842D9D00020F3E70120F9E7FEE700007F
:101EE0002DE9F0412A4D86B028782A4C30B1FFF711
:101EF00017FD00202870FEF7E9FAA0706078264DE3
:101F0000DFF89880E8B92868254E264F08B1307868
:101F100020B1286838B1387818B104E001F032F9FE
:101F200001E001F00BF9286858B1307848B13878F1
:101F300038B198F8000020B90020FEF795FA00F0BB
:101F4000D3FD0020FEF7C2FAA178E9B10021884252
:101F500017D10020FEF7BAFAA178B9B10021884262
:101F6000F7D0286800280CD098F80000002808D086
:101F700014220DA16846FEF75AF91421684601F0B3
:101F8000BFF806B0BDE8F0810121E0E70121E6E7F6
:101F90000C00002008000020200000200D00002080
:101FA0001000002011000020303132333435363734
:101FB00038394142434445464748494A0FB4054BE6
:101FC00010B503A9044A029800F018F810BC5DF897
:101FD00014FB00002D2B00086800002002E008C858
:101FE000121F08C1002AFAD170477047002001E093
:101FF00001C1121F002AFBD1704700002DE9FF4FDD
:102000008DB00F460546002606E025280BD0DDE9F9
:102010000F1290476D1C761C28780028F5D111B05E
:102020003046BDE8F08F0024A246A1460122EC49CB
:1020300000E0044315F8013F203B02FA03F0084298
:10204000F7D128782A2810D06FF02F022878A0F135
:102050003001092914D80AEB8A0102EB410144F04E
:10206000020400EB010A6D1CF0E701CF5FEA000AF1
:1020700003D544F40054CAF1000A44F002046D1C74
:1020800028782E2817D115F8010F44F004042A28C7
:102090000ED06FF02F022878A0F1300109290AD85C
:1020A00009EB890102EB410100EB01096D1CF2E72C
:1020B00057F8049B6D1C28786C280FD006DC4C2840
:1020C00017D068280DD06A2814D104E0742810D0E5
:1020D0007A280FD10DE044F400140AE044F480148F
:1020E00001E044F440146978814202D104F580147F
:1020F0006D1C6D1C2A786E2A1FD00CDC632A31D02F
:1021000004DC002A8BD0582A11D1A3E0642A68D0BD
:10211000692A0CD165E0732A2ED004DC6F2A73D0B3
:10212000702A04D19BE0752A6FD0782A6ED01046B1
:10213000DDE90F129047761C50E1C4F302500228EB
:1021400006D0032809D0042801CF09D0066045E154
:1021500001CFF117C0E9006140E101CF06803DE108
:1021600006703BE117F8040B8DF8000000208DF895
:102170000100EB46012003E057F804BB4FF0FF30AD
:1021800061074FF0000102D40DE008F1010188461B
:1021900049450FDA8045F8DB1BF808100029F4D117
:1021A00008E008F1010188468142FADB1BF80810BB
:1021B0000029F6D1DDE90F23AAEB0800814621466C
:1021C00000F036F9304400EB080604E0DDE90F12B8
:1021D0001BF8010B9047B8F10108F7D22146484699
:1021E000F7E00A21C4F302534FF0000B0891022BD1
:1021F00004D001CFC117032B09D00AE0FF1D27F03F
:102200000707F7E8020108E032E01FE020E000B233
:10221000C117042B01D140B2C117031E71F1000395
:1022200007DA4FF0000CD0EB0C006CEB01012D2312
:1022300002E0230504D52B238DF82430012303E08D
:10224000E30701D02023F7E7984658E00A2110E081
:1022500010210EE010204FF0000B08900CE0102130
:102260004FF0000B44F004044FF00809089103E01C
:1022700008214FF0000B0891C4F30253022B04D045
:1022800001CF0021032B06D006E0FF1D27F0070732
:10229000F7E8020103E080B2042B00D1C0B24FF096
:1022A000000823072BD5702A07D0DDF820C08CF05A
:1022B000100C5CEA0B0C05D00EE040238DF82430A6
:1022C000012308E050EA010306D030238DF82430C2
:1022D0008DF8252002239846DDF820C08CF0080CEC
:1022E0005CEA0B0C0BD150EA010301D1630706D560
:1022F00030238DF824304FF00108A9F10109582A44
:1023000004D038A20B9208AA0A920BE03AA2F9E78D
:102310005B46089AFDF75AFF0B9B9B5C0A9A521E7C
:102320000A92137050EA0102F2D10A98ADEB000054
:1023300000F1200B600702D524F4803401E04FF057
:102340000109D94502DDA9EB0B0000E0002000EBFC
:102350000B0141440890AAEB010AE00306D4DDE931
:102360000F232146504600F063F806444FF0000961
:1023700008E009A911F80900DDE90F12904709F1F9
:102380000109761CC145F4DBE0030CD5DDE90F2320
:102390002146504600F04CF8064404E0DDE90F12F7
:1023A00030209047761C0899481E08900029F5DCDB
:1023B00008E00A980A990078491C0A91DDE90F1291
:1023C0009047761CBBF10001ABF1010BF1DC21461B
:1023D0005046DDE90F2300F019F806446D1C1BE69A
:1023E00009280100303132333435363738396162EB
:1023F00063646566000000003031323334353637AF
:102400003839414243444546000000002DE9F0417F
:10241000044600251E461746880404D405E03946C4
:102420002020B0476D1C641EF9D52846BDE8F08118
:102430002DE9F041044600251E469046C80301D50B
:10244000302700E02027880404D505E041463846BF
:10245000B0476D1C641EF9D52846BDE8F0812DE912
:10246000F0438DB00DF1500E9EE8F013ADF8000072
:10247000ADF802108DF804201868CDF80500988892
:10248000ADF80900ADF80C50ADF81070ADF814902F
:102490008DF80B40ADF80E60ADF81280ADF816C0A7
:1024A000182106A8FDF7DCFE3F20ADF818009C209F
:1024B000ADF81A00182009900F2007900CA80A9078
:1024C00001200B90CDF820D0002106A800F05CFC84
:1024D000002803DAFF200DB0BDE8F0839DF830003E
:1024E000F9E770B58AB00E468DF820000020009004
:1024F00001901C461546182102A8FDF7B1FE3F20A9
:10250000ADF808008A20ADF80A0008A80490012060
:10251000059007200790CDF818D0002102A800F000
:1025200033FC002802DAFF200AB070BD9DF80000DD
:102530000028F9D1BDF801003080BDF803002880E3
:10254000BDF8050020800020EEE770B58AB01C467B
:102550008DF82000DDE90E6500208DF82110009037
:1025600001908DF82220182102A8FDF779FE3F2066
:10257000ADF808008A20ADF80A0008A804900320EE
:10258000059007200790CDF818D0002102A800F090
:10259000FBFB002802DAFF200AB070BD9DF80000A6
:1025A0000028F9D1BDF801002080BDF8030030807B
:1025B000BDF8050028800020EEE72DE9F0438FB03C
:1025C0001D46134616AA6C4692E8C0038DF800001B
:1025D0008DF8011010221946A01CFDF728FE8DF879
:1025E00012508DF813608DF81470CDF815808DF8A9
:1025F0001990182107A8FDF733FE3F20ADF81C0005
:102600008620ADF81E001A20CDE909400DA80B90D8
:1026100001200C90002107A800F0B6FB002803DA87
:10262000FF200FB0BDE8F0839DF83400F9E72DE9F5
:10263000FF4192B01EACDDE91C2594E84201AC19C3
:102640000E34282C03D9422016B0BDE8F0818DF855
:102650001C00BDF84C00ADF84C0080B2ADF81D0078
:10266000BDF85000ADF8500080B2ADF81F008DF8F5
:1026700021308DF8222007AC01278DF8235009A8BE
:102680002A46FDF7D4FD0835E8B232462654401CF0
:10269000C5B260194146FDF7CAFDBDF88410A819FE
:1026A000ADF88410C0B22118BDF884200A80BDF8AE
:1026B0008810801CADF88810C0B22118BDF88820A1
:1026C000801C0A80C5B2182101A8FDF7C9FD3F2072
:1026D000ADF804008320ADF8060011A8CDE9045040
:1026E00000210697039401A800F04EFB002801DAB0
:1026F000FF20A9E79DF84400A6E72DE9FF4F8FB022
:102700001F46DDE92089BDF83C00DDF878A0ADF872
:102710003C0080B2DDF870B0ADF81C000326134613
:1027200007AD8DF81E10012937D010242246194616
:10273000E81CFDF77CFDE41C2F55641C05F804B073
:10274000641C1D982855641CE0B205F800A0401CCC
:10275000C0B21F992954401CC0B2182105F800804E
:10276000401CC4B20020009001A8FDF779FD3F2075
:10277000ADF804004FF48270ADF806006846CDE96C
:10278000044000210696039501A800F0FDFA0028F8
:1027900005DAFF2013B0BDE8F08F0224C6E79DF8EC
:1027A00000000028F6D1BDF80110A9F80010F1E7EB
:1027B0002DE9F0418CB01E46DDF84880174607AD84
:1027C0008DF81C00012826D010242246681CFDF735
:1027D0002EFD641C00202F55641C18212E550090DE
:1027E00001A8641CFDF73CFD3F20ADF804004FF448
:1027F0008170ADF806006846CDE9044003200690DC
:102800000395002101A800F0BFFA002805DAFF2097
:102810000CB0BDE8F0810224D7E79DF80000002845
:10282000F6D1BDF80110A8F80010F1E73FB58FB060
:102830006C46BDF83C00ADF83C0080B2ADF800003D
:10284000BDF84000ADF8400080B2ADF80200169926
:10285000BDF84400ADF8440080B2ADF804008DF836
:102860000630012B21D010252A46E01DFDF7DFFCA4
:10287000182106A8ED1DFDF7F3FC3F20ADF8180068
:102880004FF48B70ADF81A0007AA0F2082E83100D0
:102890000CA80A9001200B90002106A800F074FA01
:1028A000002804DAFF2013B030BD0225DCE79DF8D4
:1028B0003000F8E700B587B018216846FDF7D0FC76
:1028C0003F20ADF8000040F20110ADF8020006A86C
:1028D0000490012005900021684600F055FA002878
:1028E00002DAFF2007B000BD9DF81800FAE73FB5F7
:1028F000A7B09D1D2E99802D02D942202BB030BD4E
:10290000BDF89C00ADF89C0080B2ADF80000BDF8A9
:10291000A000ADF8A00080B28DF804206C46ADF8A0
:1029200002008DF805301A46A01DFDF780FCEDB2BF
:10293000182120A8FDF794FC3F20ADF880004FF44B
:102940008370ADF8820026A82294CDE9235001209F
:102950002590002120A800F017FA002801DAFF20B6
:10296000CCE79DF89800C9E73FB5541DA7B01946BC
:10297000802C02D942202BB030BDBDF89C00ADF8B0
:102980009C0080B2ADF80000BDF8A000ADF8A0003A
:1029900080B26D46ADF802008DF80420681DFDF789
:1029A00046FCE4B2182120A8FDF75AFC3F20ADF800
:1029B000800040F22110ADF882000F20CDE9210502
:1029C00026A8CDE9234001202590002120A800F071
:1029D000DBF9002801DAFF20CDE79DF89800CAE76F
:1029E00030B58FB01446142A02D942200FB030BD42
:1029F000ADF80000ADF802106D468DF80440224697
:102A00001946681DFDF713FC182107A8FDF728FCDF
:102A10003F20ADF81C0040F22310ADF81E000DA8B9
:102A2000641DCDE90A4001200C900995002107A8FA
:102A300000F0AAF9002801DAFF20D7E79DF834005A
:102A4000D4E700B589B08DF81C008DF81D10182151
:102A50006846FDF705FC3F20ADF800000F20ADF8FB
:102A6000020007A802900220039006A8049001200B
:102A700005900021684600F087F9002802DAFF205F
:102A800009B000BD9DF81800FAE770B58D1CA8B01C
:102A90001346802D02D9422028B070BD8DF8000069
:102AA0006C468DF801100A4601261946A01CFDF758
:102AB000BEFBEDB2182120A8FDF7D2FB3F20ADF8F8
:102AC00080000C20ADF8820026A825962294CDE93E
:102AD0002350002120A800F057F9002801DAFF2038
:102AE000DAE79DF89800D7E7F8B50EA000680090E7
:102AF000FDF78EFF04460C4D42F2107605E000BF54
:102B0000FDF786FF001BB04209D828896B46801C60
:102B100081B20222E888FFF727FF4628F0D0012083
:102B20006870F8BD010000000C00002013B50749D3
:102B300005484FF47A730978012200EB8110694649
:102B4000FEF7F2FB00981CBDC40100202400002009
:102B500030B587B0054601A80C46009005AB04AA25
:102B600002A903A800F048F810F0FF0014D1BDF846
:102B70000810090A2970BDF8081009022180BDF863
:102B80000420C2F3031241EA02112180BDF804209F
:102B900002F00F021143218007B030BD70B5134D14
:102BA00000B1E86100F0B4F9114800F023FA1048D0
:102BB000083000F01FFA0F4E002400BFC4EBC40021
:102BC00000EB800006EB8001094800F022FA641C4B
:102BD000E4B2052CF2D3296809B100208847A8681F
:102BE000002802D0BDE87040004770BDC00400203E
:102BF00058000020040200202DE9F04389B0002491
:102C00000F468046DDF840901D461646009401941C
:102C1000182103A80294FDF723FB0420ADF80C0053
:102C20000120ADF80E006846CDE906400920089065
:102C30000594002103A800F0A7F8002803DAFF207C
:102C400009B0BDE8F0839DF800000028F8D19DF898
:102C5000011088F80010BDF8020038809DF80400CB
:102C60003070BDF805002880BDF80710A9F80010E5
:102C70000020E5E730B58FB00D46044620216846B8
:102C8000FDF7EEFA8DF800401F2C00D91F242246D4
:102C90006C462946601CFDF7CAFA182108A8FDF702
:102CA000DFFA0820ADF820000920ADF8220020202E
:102CB000CDE90A400EA80C9001200D90002108A833
:102CC00000F062F8002802DAFF200FB030BD9DF856
:102CD0003800FAE708B500200090144800F0A5F984
:102CE00000281ED16946114800F0ABF91048C268AF
:102CF000002A16D00098802108309047009910F0E3
:102D0000FF000FD081F888000B7A01F10802042B34
:102D100008D19278C01E824204D10448083000F0E5
:102D200078F908BD014800F068F908BD5800002096
:102D3000C0040020054902680A60C268CA600269CE
:102D40000A6182698A61806888607047C0040020D7
:102D500000B587B018216846FDF782FA0320ADF868
:102D60000000ADF8020006A80490012005900021A3
:102D7000684600F009F8002802DAFF2007B000BD1D
:102D80009DF81800FAE700002DE9F0410F460446CF
:102D900001884088A8B061F39F2085B24FF00008F9
:102DA00026A8CDF8908000F025F908E0694656483D
:102DB00000F047F954480099083800F02AF95248C1
:102DC000083800F009F90228F0DB22886088267BA9
:102DD00062F39F20A168ADF8840001208DF8866021
:102DE0008DF80000BDF88400ADF801008DF8036097
:102DF000324601A8FDF71BFA4448026912B1311DA1
:102E0000684690471FB1002028B0BDE8F0814FF41C
:102E10007A7600BFFDF7FCFD4FEA0007FDF7F8FDED
:102E2000C01BB04262D8384800F0FFF80028F5D146
:102E300024A9354800F005F9249800F10803017A27
:102E400004293ED190F888205878D91CD21E0E282B
:102E500014D00F2804D0102848D03E2831D118E0D3
:102E60004888A84242D160680F2802D00878A8BBE1
:102E700027E0606909E06261206916E0B1F80100AD
:102E8000A84233D1C91C6069D21E9042F3D80246D1
:102E9000F1E708786368984213D16069521E904246
:102EA00000D802466261491C2069FDF7C0F9164846
:102EB0002499083800F0A1F826A9134800F0FBF87F
:102EC000A1E71148083800F0B0F840B10E4800F012
:102ED000ACF820B10C482499083802E006E026A896
:102EE000249900F096F8CDF8908093E7249919B1D1
:102EF0000548083800F081F826A9034800F0DBF8FF
:102F00004FF0FF3080E7000060000020C004002088
:102F100000B587B011480090114801901148049005
:102F20001148039011480290114806906846FFF737
:102F300001FF4FF0C0610F48FDF7F0FB0E4A002182
:102F40000C48FDF703FC002211460620FDF7CEFDDC
:102F50000620FDF7BFFD07B000BD00000914000802
:102F6000E51300081D1500086D140008ED14000895
:102F70000D040008000000207D2F000810B5064C4D
:102F800001212046FDF736FD012803D10020FFF77F
:102F9000A1FEF5E710BD00000000024038B500209A
:102FA0000B4C00900DE069460A4800F04AF8E169D0
:102FB00011B100980830884706480099083800F099
:102FC00028F8044800F031F80028ECD038BD0000A3
:102FD000C00400206000002003460020EFF31081B1
:102FE00072B61A6801E01268401C9A42FBD181F364
:102FF00010887047006040607047EFF3108272B62F
:103000000368C1E900300160086882F310884160FC
:103010007047EFF3108272B6086043684B604160FE
:10302000486882F3108801607047EFF3108172B630
:103030000268824201D1012000E0002081F3108863
:10304000704730B50D46EFF3108472B60168296001
:10305000006800F008F8296800200860296884F3F7
:103060001088486030BDEFF3108172B6D0E90023BC
:103070001A6005C881F310884260704730B50D466C
:10308000EFF3108472B6416829604068FFF7EBFFE8
:10309000296800200860296884F31088486030BDE2
:1030A000FDF7C4FCFEF724FDFEF784FAFEF70EFBE5
:1030B000FEF72EFCFCE738B50C46054607E06946EE
:1030C0002046FFF7DBFF28460099FFF796FF2046D2
:1030D000FFF7ABFF0028F2D038BD000070B5064600
:1030E0000D460020FDF7E0F9002404E0315D03A067
:1030F000FEF764FF641CAC42F8DB70BD2563000082
:1031000038B50C4A0C4C1278012A0BD06289034660
:10311000521C95B20A46E088294601B0BDE830400D
:10312000FFF75EBC00900B460022E189A089FFF703
:10313000DEFB38BD090000200C00002010B50C4C4F
:1031400086B0E078002810D10AA30DF1040C0FCB53
:103150008CE80F0001A8009002234FF6FF720121B6
:10316000E088FFF763FB0120E07006B010BD0000AF
:103170000C000020669A0C200008969EE2119EB179
:10318000E2F273D910B50C4C86B0A078002810D1AB
:103190000AA30DF1040C0FCB8CE80F0001A80090DE
:1031A00002234FF6FF720121E088FFF73FFB012069
:1031B000A07006B010BD00000C000020669A0C2024
:1031C0000008969EE2119EB1E1F273D9421C00788C
:1031D00004285AD11078052826D03E2826D0FF286A
:1031E00053D132F8023FA3F54063013B26D00E2BAA
:1031F00030D027480F2B0178264838D0112B44D1E6
:10320000002942D18178921C09B1017951B3C1786A
:1032100000293AD04179002937D1B2F80310418111
:103220001DA000BFFEF7CABEFDF740BA9178901C02
:1032300001292AD14188801DFDF70ABA1C489179DD
:1032400000780128908803D012F10702FDF7A0B89A
:103250000932FBE71079801EC1B2B2F80500D21D19
:10326000FDF73EBAB2F80310018112A0DAE7002997
:103270000BD1827801210AB102793AB1C278002AD1
:1032800003D04279002A00D1417170470171704723
:10329000090000200C000020525820436861722071
:1032A00048616E646C6520253034580A00000000C7
:1032B00008000020545820436861722048616E6401
:1032C0006C6520253034580A0000000028002000DA
:1032D000002000000D0000060000000000000000BB
:1032E00001020304060708090000000001020304AC
:1032F00010330008000000206C000000DC1F0008F4
:103300007C3300086C00002074080000EC1F0008EB
:1033100000000000000000000001000001000000AB
:10332000000000000000000000000000000000009D
:103330000000000000000000000002400008024001
:1033400000440040350600080F00000000000000A7
:10335000000000000000000001000000100000005C
:10336000000000000024F400000000000000000045
:0C33700000000000000000000000000051
:040000050800019559
:00000001FF
